:1000000000800020BD0100007D0E0000350E0000C4
:10001000350E0000350E0000350E0000350E0000D4
:10002000350E0000350E0000350E00007D0E00007C
:100030007D0E0000350E0000FD24000001260000AA
:100040007D0E00007D0E00007D0E00007D0E000084
:100050007D0E00007D0E00007D0E00007D0E000074
:100060007D0E00007D0E00007D0E00007D0E000064
:100070007D0E00007D0E00007D0E00007D0E000054
:100080007D0E00007D0E00007D0E00007D0E000044
:100090007D0E00007D0E00007D0E00007D0E000034
:1000A0007D0E00007D0E00007D0E00007D0E000024
:1000B0007D0E00007D0E00007D0E00007D0E000014
:1000C0007D0E00007D0E00007D0E00007D0E000004
:1000D0007D0E00007D0E00007D0E00007D0E0000F4
:1000E0007D0E00007D0E00007D0E00007D0E0000E4
:1000F0007D0E0000D52600007D0E000001280000C6
:100100007D0E00002D2900007D0E00007D0E0000F8
:100110007D0E00007D0E00007D0E00007D0E0000B3
:100120007D0E00007D0E00007D0E00007D0E0000A3
:100130007D0E00007D0E00007D0E00007D0E000093
:100140007D0E00007D0E00007D0E00007D0E000083
:1001500065260000792600008D260000A1260000FB
:100160007D0E0000511400007D0E00007D0E000089
:100170007D0E00007D0E00007D0E00007D0E000053
:100180007D0E00007D0E00007D0E00007D0E000043
:100190007D0E00007D0E00007D0E00007D0E000033
:1001A0007D0E00007D0E00007D0E00007D0E000023
:1001B0007D0E00007D0E00007D0E0000564B4CF2BF
:1001C000205210B51A804DF628121A8000BF00BFC9
:1001D00000F058FE514B4FF010621A60504A9A607E
:1001E000504ADA60504A136813F4807304D14F49BF
:1001F0000B604FF4A85313604D4B1A78110703D5C9
:100200001A7842F008021A704A4B4B492A221A7097
:100210004A4A4B4B8B4204D252F8040F43F8040B6A
:10022000F8E7484B484900228B4202D243F8042B9E
:10023000FAE74649464A002352F8230041F82300D2
:1002400001336F2BF8D1434B434A802103F8011B44
:100250009342FBD1414B3D4A1A60414B8A221A70AE
:10026000A3F5805324225A70A0221A709A7992071B
:10027000FCD59A79D406FCD43A4A937903F00C035E
:10028000082B384BF9D105221A7143225A719A79F9
:100290009006FCD5334A9179324B4906FBD5324A58
:1002A0004FF0817111600521516020221A709A79F6
:1002B00002F00C020C2AFAD12C4B2D4A1A602D4B5D
:1002C0002D4A1A6000225A60072243F8042C2B4A58
:1002D000C3F80C2D62B600F071FF144B1B68DA07EF
:1002E00005D5274800F0EEFE264B274A1A60274B1B
:1002F0001B785B0609D5234C234B22689A4204D114
:100300001F4800F0DFFE0023236004F0A3FC00F090
:10031000BFFD00F0EDFCFEE70E20054030800440FC
:10032000823F04000100002B10D0034014D0034092
:1003300002D0074000E00740FC91FF1F085B00006F
:100340002087FF1FFC91FF1F0897FF1F0082FF1FE0
:100350000000000000E400E05FE400E008ED00E0E1
:1003600000500640004006404480044004800440A1
:10037000C010050014E000E03F190100000020203B
:10038000D3ADD15E1CE00340A5C3945A00F00740F2
:10039000FFFFFFFFFFFFFFFFFFFFFFFFFFFFFFFF6D
:1003A000FFFFFFFFFFFFFFFFFFFFFFFFFFFFFFFF5D
:1003B000FFFFFFFFFFFFFFFFFFFFFFFFFFFFFFFF4D
:1003C000FFFFFFFFFFFFFFFFFFFFFFFFFFFFFFFF3D
:1003D000FFFFFFFFFFFFFFFFFFFFFFFFFFFFFFFF2D
:1003E000FFFFFFFFFFFFFFFFFFFFFFFFFFFFFFFF1D
:1003F000FFFFFFFFFFFFFFFFFFFFFFFFFFFFFFFF0D
:10040000FFFFFFFFFFFFFFFFFFFFFFFFDEF9FFFF23
:1004100010B5054C237833B9044B13B10448AFF33E
:1004200000800123237010BDFC91FF1F000000001D
:10043000045B0000084B10B51BB108490848AFF336
:1004400000800848036803B910BD074B002BFBD0A0
:10045000BDE81040184700BF000000000092FF1FD9
:10046000045B0000FC91FF1F0000000072B6034A0D
:1004700013680133136062B6704700BF1892FF1F04
:1004800008B502221049042000F0A0FD012114202B
:1004900000F03EFE0021142000F026FE00210E2078
:1004A00000F036FE0021082000F032FE0021092075
:1004B00000F02EFE01210B2000F02AFE01210A206F
:1004C000BDE8084000F024BE6D040000F0B5474CC4
:1004D000474D484E87B00E2000F00CFE2368029373
:1004E000454A029B2968126833605B1A934268D8B8
:1004F000082000F0FFFD18B9404B1A78002A41D0BF
:10050000082000F0F7FD054618B93C4E3378002B63
:1005100040D1082000F0EEFD2368394905933948A1
:10052000059A0B680068384CD31A8342226027D999
:10053000364C0A602368642BCCBF002101210A20BD
:1005400000F0D2FD00230F20236000F053FB04F0E5
:100550005BF92F4C206003F051FD022502460B464B
:1005600000952C4800F044F92A4800F0F1F8206882
:10057000294904F059FBF0B901460B2000F0B4FD05
:1005800007B0F0BD22680392244A0399116001224A
:100590001A70B5E7236821490493214A049B09682E
:1005A0002048126803605B1A9342B2D91E4800F0DB
:1005B000A5F83570ADE701210B2000F095FD07B0DF
:1005C000F0BD1A4F3B78092083F001033B7000F027
:1005D00091FD30B10121142000F086FD33682B60BD
:1005E00086E73978142000F07FFDF7E71494FF1FA9
:1005F0000094FF1F3492FF1F0888FF1F3892FF1FCF
:100600002C92FF1F0488FF1F2092FF1F1892FF1FCC
:100610003C92FF1FF488FF1F00804F442892FF1F69
:100620000088FF1F1C92FF1F2492FF1F3092FF1FA4
:1006300008B51521044800F00BF814210348BDE863
:10064000084000F06DB800BF2492FF1F4092FF1FCA
:1006500038B504460D46C8B2012100F059FD2560A9
:10066000204638BD2DE9704F234882B000680190C4
:100670001D46019814460E4604F0C2F8294604F0BF
:10068000CBF903F0BBFC02F005FA82468B4620460C
:100690004FF0804104F004F803F0B0FC804620469F
:1006A000894603F0ABFC52465B4603F0FBFC024676
:1006B0000B464046494603F043FB03F0A3FF00EB23
:1006C0004000F6B2C40005250121304600F00CFDC3
:1006D000214630466CB12346013BFDD1002100F09C
:1006E00003FD2346013BFDD1013DEDD102B0BDE844
:1006F000708F00F0F9FCF7E71494FF1F38B505463A
:100700004FF47A74044B054A29682846FFF7AAFF7C
:10071000013CF7D138BD00BF0000F0410000C842E5
:1007200038B500224FF4FA638360C36104460D4676
:100730000270426005494FF4C8722C3000F0E0FAB4
:10074000E8B2012100F0E4FC204638BDA8550000C5
:1007500000B5064A036812885B6883B001A9ADF84A
:1007600004200222984703B05DF804FB38570000CC
:10077000F0B507468BB0002A33D0012A08BF0A2201
:1007800051B3212400E0F4B2B1FBF2F502FB1511E4
:10079000C8B2092900F1300198BFC8B20AA988BFC0
:1007A0003730214488BFC0B201F8240C661E2946A8
:1007B000002DE8D133B1013CE4B20AAB23442D2231
:1007C00003F8242C3B6801AA11195B683846C4F170
:1007D000220298470BB0F0BD30228DF8252021244D
:1007E000E8E70368C9B21B6898470BB0F0BD00BFCB
:1007F0002DE9F04385B080461946104616461F463F
:100800009DF8305003F0E8FE002840F0B18027F05A
:100810000044304621464FF0FF32594B03F0DCFED6
:1008200098B9304621464FF0FF32554B03F0B6FEE3
:1008300058B9D8F8003053495B68404603229847BE
:100840008146484605B0BDE8F083304639464FF052
:1008500060424D4B03F0B6FE002870D13046394659
:100860004FF06042494B03F08FFE002867D13046BD
:1008700039460022002303F087FE002863D1814619
:10088000002D65D0424B00240022104619463AA3A1
:10089000D3E9002303F006FC01340B46E1B28D429C
:1008A0000246F2D83046394603F04AFA0F46064669
:1008B00003F0D0FE044603F07FFB02460B463046B1
:1008C000394603F03BFA4B4606460F460A222146BC
:1008D0004046FFF74DFF0F2D28BF0F2501352E2372
:1008E0008146EDB28DF8003001240022294B3046BC
:1008F000394603F0D7FB0F46064603F0ABFE04ABC8
:100900002344C0B200F1300203F8102C03F064FB62
:1009100002460B463046394603F010FA0134E4B281
:10092000AC4206460F46E0D1D8F8003022465B685C
:10093000404669469847484605B0BDE8F083D8F878
:100940000030154978E707F100474FF0010997E7B4
:1009500000220F4B3046394603F0F2F903F07AFEDD
:100960004B4601460A224046FFF702FF814668E7F0
:10097000D8F8003009495FE7000000A09999B93F15
:10098000FFFFEF7F44570000FFFFEF41FFFFEFC184
:100990000000E03F00002440405700003C570000AA
:1009A00010B5044601F03CFE204610BD30B4054BA6
:1009B000054A0649802400251C711D60184630BC7C
:1009C00002F062B80494FF1FFC87FF1FA10900001A
:1009D000374A384913681B06FCD40B6813F08003B0
:1009E000F8D172B634490A78002A5FD0334A3448C5
:1009F000F0B4344C176806682568D4680C303E445F
:100A0000143200681268304F35442C4420440244AC
:100A1000C2F34E022D4E2E482E4D2F4C42F4004272
:100A20003A60376806682D682C4A24680C303E44CA
:100A3000006812682A4F35442C4420440244C2F313
:100A40004E02284E2848294D294C42F400423A6073
:100A5000376806682D68274A24680C303E440068D1
:100A60001268254F35442C4420440244C2F34E0200
:100A7000224E2348234D244C42F400423A6037680A
:100A800006682D68214A24680C303E4400681268CC
:100A900035442C4420440244C2F34E021C4842F424
:100AA000004202600B7062B6F0BC704762B67047DD
:100AB00024B0034024B00B400D94FF1F38B0034016
:100AC0003CB0034040B003402CB0034058B003405A
:100AD0005CB0034060B0034064B003406CB00340BE
:100AE00030B0034038B00B403CB00B4040B00B403E
:100AF00044B00B404CB00B402CB00B4058B00B40F6
:100B00005CB00B4060B00B4064B00B406CB00B406D
:100B100030B00B4030B42948294A2A4B2A4D602472
:100B2000E121047011701B78284C082B30D00A2B5F
:100B30002748284937D00C2B0CBF15223D22122301
:100B40002A60236002600B60234B24491B78244AEF
:100B5000BBB101230B601360224B23491B78234A4E
:100B6000012B26D9042B0FD9082B1ED9102B94BF8B
:100B7000862387230B6013601D4B01221A7030BC43
:100B800070470B601360E7E784230B601360F3E7A3
:100B900000F58E200F490830012213232A602360BC
:100BA00002600B60D0E71922F7E785230B60136022
:100BB000E2E780230B601360DEE700BF00400740E0
:100BC000014007400C88FF1F08B003400CB00340F1
:100BD00008B00B400CB00B401094FF1F20B0034036
:100BE00020B00B400D88FF1F24B0034024B00B4001
:100BF0000D94FF1F28282FD8334B2DE9F0411E5CA0
:100C0000FF2E2BD0314B1B78002B2AD132062CD44F
:100C100072B62F4D2F4C2F46012326602B7062B6E3
:100C200072B623681B060CD43B781BB9F4E72B780B
:100C3000002BF1D062B601F0A5FB72B6236818064E
:100C4000F5D5254B1B6800222A7062B6234A10781E
:100C500043FA00F0BDE8F081002070470020BDE8B5
:100C6000F081FFF7B5FE3206D2D572B61C4DDFF823
:100C70007C801C4C06F04007FFB206F03F06D8F817
:100C80000030DFB123F01003C8F8003001232660E4
:100C9000134A2B7062B672B6236819060CD4137807
:100CA0001BB9ECE72B78002BE9D062B601F06AFBA8
:100CB00072B623681B06F5D50B4BC3E743F0100350
:100CC000C8F80030E2E700BF485700000D94FF1F4E
:100CD0000F94FF1F00B0034010B003400C94FF1F9F
:100CE0000E94FF1F00B00B4010B00B400CB00B4037
:100CF00008B5FFF7C5FBFFF7E9FB01F043FBFAE797
:100D0000844641EA000313F003036DD1403A41D316
:100D100051F8043B40F8043B51F8043B40F8043BD5
:100D200051F8043B40F8043B51F8043B40F8043BC5
:100D300051F8043B40F8043B51F8043B40F8043BB5
:100D400051F8043B40F8043B51F8043B40F8043BA5
:100D500051F8043B40F8043B51F8043B40F8043B95
:100D600051F8043B40F8043B51F8043B40F8043B85
:100D700051F8043B40F8043B51F8043B40F8043B75
:100D800051F8043B40F8043B51F8043B40F8043B65
:100D9000403ABDD2303211D351F8043B40F8043B05
:100DA00051F8043B40F8043B51F8043B40F8043B45
:100DB00051F8043B40F8043B103AEDD20C3205D315
:100DC00051F8043B40F8043B043AF9D2043208D00D
:100DD000D2071CBF11F8013B00F8013B01D30B887F
:100DE00003806046704700BF082A13D38B078DD05D
:100DF00010F003038AD0C3F10403D21ADB071CBF2F
:100E000011F8013B00F8013B80D331F8023B20F898
:100E1000023B7BE7043AD9D3013A11F8013B00F8D1
:100E2000013BF9D20B7803704B7843708B78837059
:100E30006046704708B5104C08E0236859050DD48A
:100E400023681A050FD42368DB0411D423685803E0
:100E5000F3D500F0FDFA23685905F1D501F03AFC0D
:100E600023681A05EFD501F0CBFC2368DB04EDD530
:100E700001F05CFDEAE700BF3480044008B5FFF7ED
:100E8000D9FF00BF014B10221A8070470020054097
:100E9000704700BF094908B50B6830B16A4618446D
:100EA000A2F58052904202D20860184608BD03F0B5
:100EB000CBFE0C2303604FF0FF3008BD1088FF1FEE
:100EC000F0B44D1E2E46002400E00134B0FBF2F3D6
:100ED00002FB1300092800F130078ABF3730F8B24F
:100EE000C0B206F8010F1846002BEED10A19537054
:100EF0004CB1107815F8016F28700133E01A834265
:100F000002F80169F5DB0846F0BC7047704700BF86
:100F100010B40F4B53F8302092F880422CB10123CB
:100F200069B182F8803010BC704703EBC0035B6886
:100F30001A6841B922F002021A6010BC704782F8A8
:100F4000003110BC704742F003021A6010BC7047B9
:100F5000745700001C4A02EBC00301295B6811D0E2
:100F600004291BD052F83000002280F8802229B1D9
:100F7000022920D0032922D01A6070474FF48072D2
:100F80001A60704752F830004FF4A27280F8801255
:100F90001A601A6822F020021A60704752F8301066
:100FA0004FF4A272012081F880021A601A6842F0A0
:100FB00020021A60704740F203121A6070474FF423
:100FC00081721A60704700BF74570000212848D80A
:100FD000F8B5042A44D8DFE802F0484B4E03450038
:100FE0004FF410262B4B03EBC0030D465C682168C1
:100FF00011F4E06148D0284B284A2949C3F89C21C4
:1010000004F140422748C3F8A411A2F59221264FCB
:10101000C3F8A0017C292548C3F8A871C3F8AC0126
:101020002CD9A2F594237C2B2AD9A2F596237C2BCC
:1010300028D9A2F598237C2B29D9A2F59A227C2ABB
:1010400027D81B4872B6236823F4702343F08072BC
:10105000C4F384011643236040F82150266062B631
:10106000F8BD70474FF43026BCE74FF40026B9E7CF
:101070004FF44026B6E74FF42026B3E70D48E1E7EA
:101080000D48DFE70D48DDE7FFF764FFB3E70C48E5
:10109000D8E7F8BD745700000082FF1FD187FF1FFB
:1010A0007987FF1FA587FF1F4D87FF1F2187FF1F20
:1010B000EC88FF1F1488FF1F4C88FF1F9C88FF1FB0
:1010C000CC88FF1F30B4054B054D064C0022102183
:1010D0001A602A602060196030BC704714D0034049
:1010E00004D0034000D00340212801D8FFF710BFEF
:1010F000704700BF212806D8044B53F8303093F8CE
:101100000002C0B270470020704700BF7457000053
:10111000212801D8FFF71EBF704700BF2DE9F84313
:10112000054672B6214F224B224A1B683C68126862
:1011300062B6520102D5322B88BF0134A5B3C3F584
:101140008C331D4EDFF86890DFF8688003F23F13A0
:101150004FF47A72A6FB031302FB04F404EB13149E
:1011600072B6D9F800103A68D8F800E062B6C1F556
:101170008C3303F23F13A6FB03031EF0806FC4EB16
:1011800013134FF47A7002D0322988BF013200FB6A
:101190000233B3F57A7F04D3013D05D004F57A74A8
:1011A000DEE701F0EFF8DBE7BDE8F8831494FF1FFA
:1011B00018E000E004ED00E0398EE338F8B52D4B7F
:1011C0002D49DFF8D0E0DFF8D0C02C4E2C4D2D4C4F
:1011D0002D4A2E4F4FF4000018604FF080701860B9
:1011E0004FF0007018604FF0806018604FF00060A2
:1011F000186000200860282348F6FF71CCF8001022
:10120000CEF80030336013602B6023603B60B36224
:101210009362092245F8242CC4F8D80F05F57F65A0
:10122000C7F8D41F07F5FF2707F5FA67C6F8F83F98
:101230002B6006F5FF26C4F8D42F05F5FD2504F52F
:10124000FF24386006F2F4761148316005F5FF6539
:1012500004F5FD642B6023600260FFF75BFC19203E
:10126000FFF75CFF00F05CFE40F21310BDE8F840B1
:10127000FFF754BF08E100E00480034014800340FE
:10128000248003402C8003401C80034034800340B2
:1012900000800B400C80034008800340431E032B5A
:1012A00014D872B60A4951F8230068B170B4094CD9
:1012B000058834F81320466841F82360521B24F84F
:1012C000132062B670BC704762B67047002070474A
:1012D0007094FF1FF096FF1F013803280BD872B6D9
:1012E000074B53F8203043B100205B680130002BDE
:1012F000FBD162B67047002070471846F9E700BF7F
:10130000C494FF1F30B472B62B4A13781D0706D55C
:101310002A4B196A002936D0996A002941D053789E
:101320001C0706D5254B196C00293ED0996C002965
:1013300039D09378190705D5204B196E002936D07E
:10134000996E89B1D3781B0707D51C4BD3F8802041
:101350007AB3D3F8882011213AB162B6184B002233
:101360001A7030BC00F07EBE0D21154C154D227850
:1013700043F8315003EBC1030830013A5860227042
:1013800062B630BC704704220D4C0F4D217843F8F3
:10139000325003EBC20308304A1E5860227062B616
:1013A000EFE70521E1E70921DFE70822ECE70C225E
:1013B000EAE71022E8E700BFAC5800000080FF1FFA
:1013C000ED94FF1FC800400088004000431E032B1F
:1013D0001DD81B4A400140F0100030B4104472B6D2
:1013E000184CE25C032A1BD8DFE802F00212151742
:1013F00003220D88E25410F0080F14BFC82388237D
:1014000043EA054308310360416062B630BC70476F
:1014100008300222EDE70522EBE708300422E8E776
:10142000094A52F8230038B1084A52F823004160B3
:1014300042F8231062B6E9E742F82310034AF7E7BF
:101440000080FF1FFC94FF1FC494FF1FD494FF1F54
:101450002DE9F04FDFF80CB3DFF80CA387B044E0C0
:10146000AB4F4FEA930807EBC809013ED9F80420B7
:1014700003F00803F6B2A2F1080003F0FF04002B0A
:1014800040F0028157F838301B0C99B222F8081C42
:10149000002B00F0F0809F4B22F8064C42F8044CE1
:1014A00053F82620002A00F0C5829B4D55F82630BF
:1014B00058609A4C45F8260034F81630194424F840
:1014C000161000F0AFFD002800F0AD82944A954B55
:1014D00019F0080F00F1080018BF1346C9F80400FE
:1014E00047F8383008238BF800309BF80040E4B20E
:1014F00061071AD58C4B1B78A3B18C490A7802F08E
:10150000FF0322B1013BDBB20B7003B900BE884977
:101510000A7802F0FF032AB1013BDBB20B70002B0B
:1015200000F0578204238BF8003004F0080303F026
:10153000FF02002B00F0CC809AF80030DBB21E09CD
:101540008ED19C08DFF8C89159F8342009EBC4010A
:10155000C2F38302013A49680C2A00F28880DFE86E
:1015600002F07C7C8686868686864786868607008D
:101570000868704D4A68704F704E286081B240F222
:101580008160674B6A604FF0010E0022814249F88A
:1015900034303A60C9F81020C9F8182086F800E005
:1015A0005B4C00F2E380B1F5D06F80F04683B1F57B
:1015B000817F00F0FC8200F28D82802900F0778329
:1015C000822940F0FA82A98801F07F01042900F203
:1015D000F4825B485B4C8900084422706270027898
:1015E000930740F1588484F800E04FF0020E42E384
:1015F000514F3A6832B3544B504E5449188834789E
:101600000D784028864645F0020828BF4FF0400E6E
:10161000002C84F001043470CEEB00000CBF882451
:10162000C82409EBC80680B285F0010544EA0E44DF
:101630007260188049F8384072440D70002800F03C
:1016400045813A603B4B1A88B2F5A06F0FD100215B
:101650009A7859703E4B1A7009E0364A108842F267
:101660002102904200F037812D4A49F83420394A4E
:101670000123137036E72A4A2A4B19F0080F18BFC6
:10168000134647F838302DE700F0ECFC324A334976
:1016900052F82630002B00F0D18158688C5D42F85A
:1016A000260003F10802C9F80420032C05D8DFE85E
:1016B00004F02C02292602228A551A8819F0080FF4
:1016C0000CBF8823C82343EA024347F8383009E7B0
:1016D000E00700F18181210600F1F281A20706D521
:1016E0001F4A204913780220DBB213700870E3060A
:1016F00002D51C4B10221A7007B0BDE8F08F0422EF
:101700008A55DAE705228A55D7E703228A55D4E7B6
:101710000080FF1F7094FF1F1C94FF1FF096FF1F97
:10172000C800400088004000F894FF1F8194FF1F0C
:101730000095FF1FE494FF1F1894FF1F8094FF1F64
:10174000C0200740F094FF1F2C94FF1FEC94FF1F54
:101750009820074094200740C494FF1FFC94FF1F6B
:1017600088200740802007409020074042F2210057
:10177000814200F02A8100F2D880B1F5086F00F0B4
:101780007682B1F5106F40F01882226AB349A878CA
:101790000870120600F13A83D9F82820B0491306E0
:1017A00000F10C83D9F83020AD49150600F1018312
:1017B000D9F83820AA49140600F1F682D9F8402059
:1017C000A749100600F14A83D9F84820A449120617
:1017D00000F13F83D9F85020A149130600F134836A
:1017E000D9F858209E49150600F12983D9F86020C0
:1017F0009B49140600F11E83D9F868209849100609
:1018000000F11383D9F870209549120600F108837E
:10181000D9F878209249130600F1FD82D9F880208A
:101820008F49150600F13183D9F888208C491406B8
:1018300000F12583D9F890208949100600F1198319
:10184000D9F898208649120600F10D838548864A0A
:10185000864901908648874D874C0497002305965A
:10186000029580460F4616461D460394306828B1FF
:10187000446800F0F7FB2046002CF9D100233360C8
:10188000029B38681A46002342F8253028B1446884
:1018900000F0E8FB2046002CF9D100223A60019AC2
:1018A00098F800301146002241F8042B039A019168
:1018B000023B4FF0000122F81510032B00F22B81A0
:1018C000DFE813F07001250170012501BEF1400F22
:1018D00018BF0022B5E6694A0D7848781570507037
:1018E0008D78C8789570D07010680D79157186283C
:1018F0004D7989795571917100F09B816049614EF4
:101900000A78307882F00105002842F002020D705A
:101910000CBF8821C82149F8321009EBC20280F0BF
:1019200001000021307051609EE642F22120814288
:1019300040F0CB81544B554C5549A8781D68256023
:10194000CDF804E0087000200290804684460446EA
:101950004B490D7845F0020E09EBCE030393019B32
:10196000002B039B5C600CBF8824C82444EA080356
:1019700085F0010449F83E3032700C70DFF8E0E089
:10198000404BDFF8FC80002840F01E81BCF1400F86
:101990001BD144F0020C09EBCC03029CDFF8C0E041
:1019A0005C60002A40F02681020442F088029DF823
:1019B00004304EF83C20044433700D702346402818
:1019C00003D10020334A3B601080334A0123137057
:1019D0004DE600F0B3FCA5E5214B2F4828491A61DC
:1019E0004FF0020E80F800E02C4F0A702C4919606D
:1019F00099602C4E2C4D2D4C9A610D213970FF2190
:101A00003170DFF8B8E029702270294D294A8EF82C
:101A100000109F27012406F8047C5D600470DA60E2
:101A200007B0BDE8F08F244A47F838001378013337
:101A3000137057E543F826000E4D3AE58B5D032BF6
:101A400000F2F08001A252F823F000BFE51400007C
:101A5000E5140000091B0000031B0000F894FF1FA1
:101A60000080FF1FD494FF1F7094FF1FC494FF1FBA
:101A7000FC94FF1F1C94FF1FF096FF1FF896FF1F9A
:101A8000EC94FF1F8094FF1F1494FF1F0097FF1F0B
:101A90001095FF1F2C94FF1F94200740C020074083
:101AA0008800400088200740802007409820074099
:101AB0003094FF1F8494FF1FED94FF1F8C2007407C
:101AC000C149C24B80220D2008701A70A2077FF511
:101AD0000EAE05E640F20232914240F0EE80A98857
:101AE00001F07F01042968D86A88002A65D1B648C8
:101AF000CDF804E089000844017841F0020101704A
:101B000021E701238B55EDE400238B55EAE44FF0E8
:101B1000010388F800300135042D06F1040607F1B1
:101B2000040708F101087FF4A1AEA94CA94B227863
:101B3000A94D049F059E002129701A70130700F11A
:101B400005816278A549DFF8A0820A7010074FF07E
:101B50000001C9F83010C9F8381000F1E080A04940
:101B6000A2780A700021C9F85010C9F8581011075E
:101B7000DFF8748200F10181E2789A499A4C0A7088
:101B800000211207C9F87010C9F8781000F1B08070
:101B900033780193002183F00102C9F89010C9F84D
:101BA0009810D0E64FF0000388F80030B3E7A9881A
:101BB00001F07F01042940F28D80834A0F231370C6
:101BC0008A4A0123137052E540287FF6E2AE44F0C2
:101BD00002040EEBC401029E4E60BAB19DF80410DF
:101BE000834A19703346403888F8005040334EF825
:101BF0003420E7E69DF8043033700204029B0D7038
:101C000042F0C80203444EF83C20D8E69DF8041088
:101C10001970029B774A88F80050403840334EF8DC
:101C20003420CFE619F0080F0CBF022303238B5595
:101C300058E4714A0F21117060E6704A5468002C14
:101C4000BBD06888B5F804E003E00C325468002C7F
:101C5000B3D013888342F8D153887345F5D1000A75
:101C600003280CBF94F800E0B2F808E003E0644AEF
:101C7000644C12782270E888704580F03F81624998
:101C80000D784028844645F0020E28BF4FF0400CE6
:101C900004EB0C0309EBCE02029301235460CCEB5E
:101CA00000004FEA0C4800220193C8245EE6554C20
:101CB0004FF0020E22706270DDE7B1F5A06F7FF485
:101CC0007CAF0123002201933DE642F22132914292
:101CD000F7D072E76A88002A7FF46FAF3A48CDF8F0
:101CE00004E089000844017821F0020101702AE62D
:101CF00000F098F9002800F0EF8008303D4AC4F861
:101D00008400C4F8802000F08DF9002800F0DE8007
:101D10000830374AC9F88C00C9F8882038E700F045
:101D200081F9002800F0C0800830324AC8F8440029
:101D3000C8F8402000F076F9002800F0AF800830A5
:101D40002B4AC9F84C00C9F8482008E700F06AF9A6
:101D5000002800F0CD800830264AC9F82400C9F8D0
:101D6000202000F05FF9002800F0BC800830204AF5
:101D7000C9F82C00C9F82820E3E600F053F9002840
:101D800000F09E8008301B4AC8F86400C8F8602044
:101D900000F048F9002800F08D800830144AC9F896
:101DA0006C00C9F86820E7E6C86B083800F05AF9FB
:101DB00004E5486B083800F055F9F9E4C86A0838BA
:101DC00000F050F9EEE400BFC0200740802007403B
:101DD000AC580000C4200740ED94FF1FC820074006
:101DE000CC200740D02007400080FF1F94200740F0
:101DF000C8004000880040008194FF1FB0580000D8
:101E0000F894FF1FF094FF1FEC94FF1F606A0838DE
:101E100000F028F9C0E4C86F083800F023F9FDE4A9
:101E2000486F083800F01EF9F2E4C86E083800F078
:101E300019F9E7E4486E083800F014F9DCE4C86DDD
:101E4000083800F00FF9D1E4486D083800F00AF9BD
:101E5000C6E4C86C083800F005F9BBE4486C0838E3
:101E600000F000F9B0E4D1F89C00083800F0FAF86E
:101E7000ECE4D1F89400083800F0F4F8E0E4D1F88C
:101E80008C00083800F0EEF8D4E4D1F8840008386B
:101E900000F0E8F8C8E44FF0020EECE62A78C9F842
:101EA000480001322A705AE62A78C8F84000013208
:101EB0002A703FE72A78C9F8680001322A705BE689
:101EC0002A78C8F8600001322A7061E72A78C9F8D8
:101ED000880001322A705BE62A78C4F8800001325B
:101EE0002A7010E72A78C9F8280001322A7028E6FB
:101EF0002A78C9F8200001322A7032E7BEF1400F7B
:101F0000F44628BF4FF0400C04EB0C03029301236E
:101F1000CCEB0E004FEA0C480022019318E500BFFD
:101F2000F8B500F06FFD294B29482A4C2A4F2B4D5C
:101F3000DFF8BCC0DFF8BCE0294E00221A605A600E
:101F40009A60DA601A615A619A61DA611A625A62B9
:101F50009A62DA621A635A639A63DA631A645A6499
:101F60009A64DA641A655A659A65DA651A665A6679
:101F70009A66DA661A675A679A67DA67C3F8802042
:101F80000168C3F8842041F480210160C3F3072174
:101F90002170C3F30740134938701B0E2B70FF23C9
:101FA0008CF80030104D8EF8003010480B70012373
:101FB000337084F8642070264FF40074102207F800
:101FC0002C3C2E70046081F8F820F8BD0080FF1FC3
:101FD000348004409C200740B0200740B4200740D4
:101FE000942007401020074049E400E008E100E0A9
:101FF000802007408820074000F0A4B800F07CB89B
:1020000000F056B800F090B800F06CB900F046B996
:102010000846114600F0B2B8084600F033B900BFD8
:10202000704700BF72B60D480268B2FA82F30B2BFC
:1020300010DC4FF00041D94022EA0102026062B692
:10204000074803EBC303DB00C2180021C150104650
:102050005160704762B60020704700BF0489FF1FBF
:10206000BC83FF1F0D4B0E4AC31AA2FB03231B099F
:102070000B2B0CD80B4A127852B972B60A484FF0A3
:102080000041026821FA03F31A43026062B6704706
:10209000064A1278002AF0D0FFF734B9BC83FF1F3C
:1020A000398EE338ED94FF1F0489FF1FF894FF1F5A
:1020B00038B50F4D286878B143880288C1180133BC
:1020C00093420C7A02D24380204638BDFFF7CAFF04
:1020D000002320462B6038BD064B1B782BB1032014
:1020E000FFF7DCF828600028E6D14FF0FF3038BD5C
:1020F0000C95FF1FF894FF1F10B5094C206818B10C
:1021000043881844007A10BD064B1B782BB103207E
:10211000FFF7C4F820600028F2D14FF0FF3010BD67
:102120000C95FF1FF894FF1F044B054A1B6890880D
:102130001BB11A885B88D31A184470470C95FF1F8F
:10214000F096FF1F0B4B1B789BB110B50A4C206813
:1021500048B1FFF787FF002303202360FFF79EF8B5
:1021600030B1FFF77FFF0320FFF798F80028F8D180
:1021700010BD7047F894FF1F0C95FF1F2DE9F04F1D
:10218000DFF8F89083B0012289F80020019169B34B
:10219000DFF8EC80364F019E8346D8F80000B0B3DC
:1021A000344D4488C4F14001B14228BF314604EBAC
:1021B000010E00221FFA8EFE2A70761AA0F802E0A5
:1021C00000F1080251B1013C224459441BF8014B73
:1021D00002F8014F8B45F9D1B0F802E0BEF13F0F94
:1021E0000BD8254A05211170002ED6D10198002365
:1021F00089F8003003B0BDE8F08F4022028001462C
:102200000420FFF7E3F80022C8F80020E9E73A7855
:102210002AB3184D48F601444FF0010A07E0013C8B
:1022200016D02A78A2B900F0ADF83A78BAB10420F5
:10223000FFF752F80728F2D889F800A0FFF7F2FE5E
:10224000C8F800000028ACD10C4B013C1870E8D154
:1022500001234FF0FF302B7003B0BDE8F08F002357
:102260004FF0FF3089F8003003B0BDE8F08F00BFB9
:10227000F894FF1F0895FF1F0095FF1F0195FF1F92
:102280000495FF1F00B583B002AB012103F8010DD7
:102290001846FFF773FF03B05DF804FB38B50E4D29
:1022A0000E4C28680123237028B140880023237036
:1022B000C0F1400038BD0A4B1B7813B900202070D4
:1022C00038BD0420FFF708F80728F7D8FFF7AAFE63
:1022D00028600028E9D1F1E70495FF1F0195FF1F51
:1022E000F894FF1FF8B5114B1B788BB1104E114DB0
:1022F000346801272F7064B10F4A63880027177074
:10230000214623800420FFF761F8376000232B70FB
:10231000F8BDFFF787FE084B28B1014604201C706A
:10232000FFF754F8F2E71F70F0E700BFF894FF1FC3
:102330000495FF1F0195FF1F0095FF1F38B50E4B39
:102340001B7873B90D4C216861B103F0FF054B8810
:102350000B800420FFF73AF8256038BD084B0122B6
:102360001A7038BDFFF75EFE0028F7D00146BDE8C1
:1023700038400420FFF72AB80195FF1F0495FF1F7E
:102380000095FF1F38B5224C237803B138BD0123D7
:102390002370FFF7C9FE70BB00F08CF940BB00F062
:1023A0001FFA10BB00F0B2FAE0B900232370EFF37C
:1023B0000583002BEAD1EFF3108172B6154B186834
:1023C000E0B1154C2278CAB945691D60012323701C
:1023D000C5B1AA6101B962B60025457783689847FF
:1023E0002570D3E700F018F9DFE700F013F9D9E71B
:1023F00000F00EF9D3E7FFF713FECDE70029C5D1B2
:1024000062B638BD054B1D600029E5D1E3E700BF8A
:102410001195FF1F2495FF1F2895FF1F2095FF1F73
:1024200010B4EFF3108272B6437F33B9017F0129F4
:1024300007D003290FD00123437702B962B610BC3D
:102440007047124C2168A1B1114943610B68836147
:1024500008605861EFE70F4C216881B10E49436174
:102460000B688361086058610C4B4FF08051196014
:10247000E1E7074B4161816120601860DBE7064BB3
:102480004161816120601860EEE700BF2495FF1F65
:102490002095FF1F1495FF1F1895FF1F04ED00E006
:1024A00010B4047F4160022CC26002D010BCFFF760
:1024B000B7BF836810BC184770B5EFF3108272B6CF
:1024C0000C4C206880B10C4E00254369236073B129
:1024D0009D6102B962B6457783689847EFF3108231
:1024E00072B620680028F0D102B962B670BD3360C0
:1024F000EFE700BF1495FF1F1895FF1FFFF7DCBF24
:10250000184A30B41468002C27D0036821688B4225
:102510000ED2CB1A00218460C1602360E06010609D
:102520000223037530BC704711688B42144608D3F0
:10253000A2685B1A0360002AF6D18260C460A060C2
:10254000EEE7D268C2608460E060C568CB1A022200
:10255000A8602360027530BC70478460C46010605E
:10256000DEE700BF1C95FF1FF8B5224E34682CB380
:102570002368002B3AD1204F1D4604E03468ECB1AB
:102580002368002B32D1A36803B1DD60206933607A
:10259000036825751B68BB4221D1037F4560022B70
:1025A000C46020D0FFF73CFF6368002BE6D02360B7
:1025B0002046FFF7A5FF3468002CE1D1EFF310832C
:1025C00072B60E4A00211068116003B962B628B1D4
:1025D0008468FFF795FF20460028F9D1F8BD224610
:1025E00000219847E0E783689847DDE7013B2360D7
:1025F000E4E700BF1C95FF1FA12400002C95FF1FDE
:10260000024A136801331360FFF7AEBF1494FF1F33
:10261000704700BF704700BF704700BF704700BFE2
:102620000168A9B10B4BF0B40B441B110A4E0B4FC0
:102630000B4D46F8237003F1440202F01F040123FE
:102640005211A340002445F822308C600460F0BC95
:10265000704700BF008FFCBF0889FF1F1D260000C8
:1026600080E100E0024A034B012111601B6818471A
:102670000C7103400889FF1F024A034B01211160BE
:102680005B6818471C7103400889FF1F024A034B0F
:10269000012111609B6818472C7103400889FF1FB6
:1026A000024A034B01211160DB6818473C7103406B
:1026B0000889FF1F054A064B10781B78C0B2DBB2B1
:1026C000984238BF4030C01A704700BF3495FF1F92
:1026D0003595FF1FF0B4384B1A7912F0300F2CD01B
:1026E00072B6997D01F0FF0200293DD062B6334FEA
:1026F000334938780D78334E1C46C0B2EDB2431CD6
:10270000402BE17928BF0023AB4202F1FF32C9B26E
:102710001CBFF154184612F0FF02F0D12A4B1B687F
:10272000C2B23A704BB1A84236BFC5F14005401B5A
:1027300040192728C4BF01221A701F49CA78D2B293
:10274000150616D452060DD51B4B1B795B0609D511
:102750001E4B1F491B6800220A7003B11A70164BEA
:102760003C22DA70F0BC70474022D9795A7462B6C4
:10277000E3E70B791C06E5D5164B174E1C7833782A
:10278000E4B2DBB29C420ED0144D01E0A3420AD069
:102790000133402B28BF00230879E85CC0B2C87120
:1027A000087D0728F2D9DBB2034933700B7918068C
:1027B00044BF7C23CB70C5E700A006403495FF1FC3
:1027C0003595FF1F7895FF1F3095FF1FBC95FF1FA4
:1027D000B895FF1FC095FF1FB995FF1F3895FF1FC4
:1027E000054A064B10781B78C0B2DBB2984238BF5E
:1027F0004030C01A704700BF3496FF1FC995FF1FB5
:10280000F0B4384B1A7912F0300F2CD072B6997D93
:1028100001F0FF0200293DD062B6334F33493878CA
:102820000D78334E1C46C0B2EDB2431C402BE1790B
:1028300028BF0023AB4202F1FF32C9B21CBFF154E2
:10284000184612F0FF02F0D12A4B1B68C2B23A7050
:102850004BB1A84236BFC5F14005401B401927289F
:10286000C4BF01221A701F49CA78D2B2150616D405
:1028700052060DD51B4B1B795B0609D51E4B1F4914
:102880001B6800220A7003B11A70164B3C22DA70E2
:10289000F0BC70474022D9795A7462B6E3E70B79ED
:1028A0001C06E5D5164B174E1C783378E4B2DBB224
:1028B0009C420ED0144D01E0A3420AD00133282BD4
:1028C00028BF00230879E85CC0B2C871087D0728DA
:1028D000F2D9DBB2034933700B79180644BF7C236D
:1028E000CB70C5E700B006403496FF1FC995FF1FA7
:1028F000F495FF1FC495FF1F3896FF1FC895FF1F53
:102900003C96FF1F3596FF1FCC95FF1F054A064BCF
:1029100010781B78C0B2DBB2984238BF4030C01A82
:10292000704700BF4496FF1F4596FF1F30B42B4BE6
:102930001A7994061FD52A48DA7903782949013390
:102940003F2B0978C8BF00238B42D2B203D0264C5C
:10295000D9B2E2540170254A116861B1244A127853
:10296000D2B2934236BFC2F140029B1A9B18272B6A
:10297000C4BF01230B70194AD378DBB2180611D4F7
:102980005A060DD5154B1B795B0609D5194B1A490B
:102990001B6800220A7003B11A70104B2C22DA70E7
:1029A00030BC704711790906EAD5144910480C78F3
:1029B0000178C9B28C420DD04A1C272A84BF00215D
:1029C0000A460F4D054C98BFD1B2AA5CD2B2E27153
:1029D0000170D5E76C21D170D2E700BF00C006407E
:1029E0004496FF1F4596FF1F7096FF1F4096FF1FDE
:1029F000B196FF1FB496FF1FB096FF1FB896FF1F3A
:102A00004896FF1F70B584B072B6194B194D1A481D
:102A1000702241260F2480211A702E701A460470ED
:102A2000197013781B06FCD5144B186862B6144B4A
:102A3000144C984298BF00EB800001A998BF400059
:102A40000A22FEF73DFA01A92046002311F8012BC6
:102A500001333AB10A2B20F8022FF7D11623237045
:102A600004B070BD5B00DBB2237004B070BD00BF6A
:102A70000000024007000240060002400800024039
:102A80007F969800A489FF1F0B460146184602F066
:102A9000D5B800BF30B51F4A21F00043934287B03C
:102AA0001BDD1D4A934205DD02460B4601F046F947
:102AB00007B030BD02AA00F033F800F0030001288F
:102AC000DDE904231AD002280FD0E0B1DDE90201CC
:102AD00000F04AFA01F10041EAE7002300930022E6
:102AE000002300F05DFF07B030BD0124DDE90201E5
:102AF000009400F055FF01F10041D9E7DDE9020142
:102B000000F032FAD4E70124DDE90201009400F07C
:102B100047FFCDE7FB21E93FFFFFEF7FFFFFFFFF0F
:102B20002DE9F04F944E21F00047B74291B040F3A9
:102B300082809246914A97420C4626DC002984A363
:102B4000D3E9002340F3A88101F0F8F88C4B9F42B1
:102B500004460D4600F084807FA3D3E9002301F0F2
:102B6000EDF802460B46CAE900232046294601F04B
:102B7000E5F879A3D3E9002301F0E0F80125CAE9DB
:102B80000201284611B0BDE8F08F7E4A974240F31B
:102B900084807D4A974259DC3D15A5F21645A7EB86
:102BA000055319461F46064601F02CFD01F014FAA4
:102BB0008046894602460B4630463946CDE90A89A9
:102BC00001F0BCF80022714B01F06CFA8946804696
:102BD00001F018FD01F000FA02460B4606460F46CA
:102BE00040464946CDE90C6701F0A8F80022674B42
:102BF00001F058FA00220023CDE90E0101F0BAFCE1
:102C0000002800F07581002330463946002201F08B
:102C1000B1FC002814BF012302235D4A0192022166
:102C200000912A4651460AA800F0C2FA002CC0F2D0
:102C30005181054606E0C2E9000100250024C2E9F1
:102C400002450025284611B0BDE8F08F02460B462C
:102C500001F074F80025CAE90201CAE90001F1E7B0
:102C60003FA3D3E9002301F069F83FA3D3E9002390
:102C70000D46044601F062F802460B46CAE90023FD
:102C80002946204601F05AF837A3D3E9002301F082
:102C900055F80125CAE90201D4E700F037FF34A353
:102CA000D3E900238046894601F0FCF90022394B24
:102CB00001F046F801F0A6FC054601F08DF924A3C9
:102CC000D3E90023CDE9040101F0ECF902460B46FB
:102CD0004046494601F032F81FA3D3E9002380465D
:102CE0008946DDE9040101F0DDF91F2DCDE902017E
:102CF00054DC294B6A1E53F822309F424ED00246C4
:102D00000B464046494601F019F802460B46CAE90F
:102D1000002383460E465A4633464046494601F054
:102D20000DF8DDE9022301F009F8002C02460B46FC
:102D3000CAE9022386DA5B4606F1004601F100414A
:102D40008AE84800CAF80C10CAF808006D4279E712
:102D500000004054FB21F93F3163621A61B4D03D59
:102D60000000601A61B4D03D7370032E8A19A33B32
:102D700083C8C96D305FE43FFB21E93F7BD9024046
:102D8000FB21F93FFB213941FFFFEF7F000070413C
:102D9000845900000000E03F04590000DDE90223EF
:102DA0004046494600F0CAFF3A15C1F30A53D31A08
:102DB000102B83460E460992CAE90001ABDD5EA3E3
:102DC000D3E90023DDE9040101F06CF906460F4662
:102DD00002460B464046494600F0B0FFCDE90601E9
:102DE00002460B464046494600F0A8FF32463B46A5
:102DF00000F0A4FF52A3D3E9002306460F46DDE905
:102E0000040101F04FF932463B4600F097FFDDE93F
:102E10000689CDE9020102460B464046494600F0CC
:102E20008DFF0B46C1F30A570E460999CF1B024688
:102E3000312F8346CAE900237ADD43A3D3E9002377
:102E4000DDE9040101F02EF906460F4602460B4665
:102E500040464946CDE9068900F070FF02460B4620
:102E600080468946DDE9060100F068FF32463B46B0
:102E700000F064FF36A3D3E9002306460F46DDE9E0
:102E8000040101F00FF932463B4600F057FF0246BD
:102E90000B46CDE9022334E700F052FF304B9F424E
:102EA00004460D4626D02CA3D3E9002300F048FFAA
:102EB00002460B46CAE900232946204600F03EFFA1
:102EC00025A3D3E9002300F03BFF4FF0FF35CAE90B
:102ED0000201B7E6DAF80420DAF80C3002F1004219
:102EE00003F100434542CAF80420CAF80C30A9E6B1
:102EF000032392E610A3D3E9002300F021FF10A3DF
:102F0000D3E900230D46044600F01AFF02460B46A3
:102F1000CAE900232946204600F010FF08A3D3E9A0
:102F2000002300F00DFF4FF0FF35CAE9020189E6EA
:102F3000DDE90689EFE600BF0000601A61B4D03D0C
:102F40007370032E8A19A33B0000002E8A19A33B3D
:102F5000C14920259A837B393163621A61B4D03D1F
:102F6000FB21F93FFFFFFFFF2DE9F04F21F0004665
:102F7000B6F1795F85B00C4692469B4605466BDA02
:102F800001F040FB002800F0E8802A46234628464E
:102F9000214601F087F874A3D3E9002380468946CF
:102FA00001F080F872A3D3E9002300F0C9FE424685
:102FB0004B4601F077F870A3D3E9002300F0BEFE82
:102FC00042464B4601F06EF86DA3D3E9002300F0B2
:102FD000B7FE42464B4601F065F86BA3D3E90023E8
:102FE00000F0ACFE42464B4601F05CF868A3D3E922
:102FF000002300F0A5FE42464B4601F053F8CDE910
:1030000000010022644B4046494601F04BF8DDE9DF
:10301000002306460F464046494601F043F8524613
:10302000804689465B462846214601F03BF8024629
:103030000B464046494600F081FE02460B463046AC
:10304000394600F07BFE02460B460020534900F053
:1030500075FE05B0BDE8F08F02460B4601F022F880
:1030600041A3D3E900238046894601F01BF840A321
:10307000D3E9002300F064FE42464B4601F012F80B
:103080003DA3D3E9002300F059FE42464B4601F030
:1030900009F83BA3D3E9002300F052FE42464B4619
:1030A00001F000F838A3D3E9002300F047FE4246C0
:1030B0004B4600F0F7FF36A3D3E9002300F040FEB3
:1030C0004B46424600F0EEFF354B9E42CDE90001F3
:1030D00097DD344B9E424FF0000238DCA6F500131A
:1030E00000202E4916461F4600F028FECDE90201B9
:1030F0000022294B4046494600F0D4FF32463B4669
:1031000000F01CFEDDE9002306460F464046494616
:1031100000F0C8FF5246804689465B462846214655
:1031200000F0C0FF02460B464046494600F006FE4E
:1031300002460B463046394600F000FE02460B467A
:10314000DDE9020100F0FAFD05B0BDE8F08F164B95
:10315000164FCDE902230026CAE71049002005B02A
:10316000BDE8F08FAFF30080D43888BEE9FAA8BD7F
:10317000C4B1B4BD9EEE213EAD529C804F7E923EC6
:103180009015CB19A001FA3E7751C1166CC1563F7C
:103190004C5555555555A53F0000E03F0000F03F08
:1031A0003233D33F0000E93F0000E73F0000D23F49
:1031B0002DE9F04FADF51D7D784CA69E784D54F865
:1031C000264009942646D41E85FB0475E417C4EBFB
:1031D000A50424EAE4741D460B93631CA3EB83034C
:1031E000013D02EBC30308932B460D940295651B2A
:1031F000F41804900A9116D42C44013422AEA79FEF
:1032000008E057F8250000F0E7FE0135A542E6E9A1
:10321000020108D0002DF4DA013500200021A5427A
:10322000E6E90201F6D1099B002B2FDB099BDDF8B3
:10323000089074AA02EBC30B0DF5E47A029B002BF5
:10324000C0F295810B9BC3EB090824AB03EBC808C4
:10325000049BA3F1080524AB03EBC9040026002757
:10326000F5E9022374E8020100F01CFF02460B4658
:103270003046394600F064FD444506460F46EFD11E
:10328000EAE90267DA4509F10109D7D1099D05F19B
:103290008043023B9B001A1D10A90A440B440F9265
:1032A0000E939CAB03EBC503002D53E928672BDD80
:1032B0009CAB03EBC504A83C0DF13C0A0DF5E47B87
:1032C0000022384B3046394600F0ECFE01F09AF906
:1032D00000F082FE0022344B8046894600F0E2FE78
:1032E00002460B463046394600F028FD01F08AF9C7
:1032F00074E802234AF8040F4946404600F020FDD6
:103300005C4506460F46DBD1089C304639462246CE
:1033100000F08AFC00224FF07F5306460F4600F073
:10332000C1FE00F0F9FB0022204B00F0BBFE02467C
:103330000B463046394600F001FD0F46064601F0C7
:1033400061F9814600F048FE02460B463046394698
:1033500000F0F4FC002C06460F4640F3EF80691E97
:1033600010AAC4F1180352F8212042FA03F000FA1F
:1033700003F3D31A10AAC4F1170842F8213081448C
:1033800043FA08F8B8F1000F3DDD002D09F10109FD
:1033900040F3D482002214460FA911E08C5A000099
:1033A000ABAAAA2A0000703E000070410000204035
:1033B000C3F180700BB108600124013295420DDD2C
:1033C00051F8043F002CF3D0C3F1FF13013203F591
:1033D0007F4395420B604FF00104F1DC089B002B0A
:1033E0000DDD012B00F0B280022B08D16A1E10AB5C
:1033F00010A953F82230C3F3150341F82230B8F175
:10340000020F00F08280002200233046394601F08E
:10341000B1F8002800F05C82099B05F1FF3B5B4599
:1034200010DC05F1804310AA013B0F9802EB8303E7
:10343000002253F80419834242EA0102F9D1002A1A
:1034400040F0B280099B10AA013B52F82330002BB8
:1034500040F072820E9A012352F8041901330029B8
:10346000FAD0E9186A1C8A420C9149DC0D990B9834
:103470005118DB0001F180410593A79B05440139F8
:10348000E80003EB810A24ABD20003EB000B74AB22
:1034900013440193A2F10803069007934FF000092B
:1034A0005AF8040F00F098FD029B002BEBE8020194
:1034B00028DB069B03EB0904079B09EB030824ABFD
:1034C0001C449844049B0026A3F108050027F5E955
:1034D000022374E8020100F0E5FD02460B46304687
:1034E000394600F02DFC444506460F46EFD1019BBE
:1034F000E3E802670193059B09F108099945CFD1DB
:103500000C9DCEE600260027F1E732463B46002020
:10351000AF4900F013FC06460F46002C3FF473AF92
:10352000089AAB49002000F07FFB02460B4630466C
:10353000394600F003FC06460F4664E710D16B1EC7
:1035400010AA52F823304FEAE3581BE76A1E10AB6B
:1035500010A953F82230C3F3160341F822304EE786
:1035600000229C4B01F024F858B980464BE7002616
:103570000027EAE90267DA4509F101097FF45EAE46
:1035800084E6002D09F10109C8BF4FF002083FF79A
:1035900001AF32463B4600208D4900F0CFFB4FF093
:1035A000020806460F462EE710AB089A53F82B3058
:1035B000CDF81490183ACDF8048008926BB90BF14D
:1035C0008043013B10A901EB830353F804190BF16D
:1035D000FF3B183A0029F8D00892089A7C4900204D
:1035E00000F022FBBBF1000F04460D46C0F2B6818D
:1035F0004FEACB030DF5E87810AA02EB8B0608EB37
:1036000003090493043609F1080756F8040D00F085
:10361000E3FC22462B4600F045FD002267E902014B
:103620006D4B2046294600F03DFDB84504460D4649
:10363000EBD10DF5987A4B46CDF808A0DDF824A023
:10364000CDF818B04FF000099B46BAF1000FC0F258
:103650002881DFF888815D465BA3D3E9002300263B
:103660000027002403E0A14510DBF8E90223F5E878
:10367000020100F017FD02460B463046394600F0C5
:103680005FFB0134A24506460F46ECDA029B03EBD2
:10369000C903ABF1080BC3E9006772AB5B4509F1E5
:1036A0000109D2D1A69BDDF818B0DDF808A0032BE4
:1036B00000F28380DFE813F0D3009400940004004C
:1036C000BBF1000F40F35481049BCDF808B00AEB26
:1036D0000308D8E90067D34658E9029A32463B46C8
:1036E0004846514600F02CFB04460D4602460B4668
:1036F0004846514600F022FB32463B4600F020FB94
:10370000C8E9000168E90245C34526462F46E3D1D2
:10371000DA46DDF808B0BBF1010F40F32981049BC4
:103720005344D3E90067984699460DF59C7B59E9C7
:1037300002343046CDE902341A463946234600F0B9
:10374000FFFA04460D4602460B46DDE9020100F091
:10375000F5FA32463B4600F0F3FAC9E9000169E99F
:103760000245CB4526462F46E1D1002308F1080843
:103770001D4650AC1846294678E9022300F0E0FACD
:10378000444503460D46F5D1019A002A00F0D88041
:103790000A9FDAF80440DAF80C20DAF80010DAF8B8
:1037A00008003B6105F1004504F1004402F10043CB
:1037B0007D617C60FB603960B860059B03F00700A9
:1037C0000DF51D7DBDE8F08F00000040FB21F93FA5
:1037D0000000F03F0000E03F0000703EA05A0000F3
:1037E000049C00260834544433463046194674E994
:1037F000022300F0A5FA544506460B46F5D1019A7E
:1038000030461946002A4FD00A9803F10044324648
:1038100044600660DAE9000100F090FABBF1000FA5
:1038200002460B460DDD012410461946FAE9022333
:1038300000F086FA0134A34502460B46F4DA0199FA
:1038400009B103F1004319460A9B1046C3E902017E
:10385000059B03F007000DF51D7DBDE8F08F049B6F
:10386000002208339A441346104619467AE9022387
:1038700000F066FA0BF1FF3BBBF1FF3F02460B463F
:10388000F2D1019909B103F1004319460A9B104690
:10389000C3E90001059B03F007000DF51D7DBDE8A0
:1038A000F08F00260027F1E60A9B3246C3E90001AB
:1038B0000B46DAE9000100F041FABBF1000F0246C5
:1038C0000B46B0DC19460A9B1046C3E90201BFE76C
:1038D000089BCDF814905A4230463946CDF8048002
:1038E00000F0A2F900222C4B06460F4600F060FEC5
:1038F000002840D00022294B3046394600F0D2FB48
:1039000000F080FE044600F067FB0022224B00F02E
:10391000C9FB0B4602463946304600F00FFA00F06C
:1039200071FE089B183305F1010B089310AB43F8A7
:10393000250043F82B4050E6012392E500244DE595
:1039400018462946DAE90023DAE902450A9FC7E961
:103950000401C7E90023C7E902452EE7A69B032B14
:103960003FF62BAFDFE803F0151010020DF5987A43
:1039700000231D4608E73046394600F043FE10ABF1
:10398000AB4643F8250028E6002633460DF5987A25
:1039900035E70022134674E7000070410000703ED6
:1039A0002DE9F04F21F00046B6F1795F85B00C4665
:1039B00090469946054604DA00F024FE002800F0FF
:1039C00085802A4623462846214600F06BFB0646A2
:1039D0000F4602460B462846214600F063FB3EA3F5
:1039E000D3E9002382468B463046394600F05AFB25
:1039F0003BA3D3E9002300F0A1F932463B4600F097
:103A000051FB39A3D3E9002300F09AF932463B4633
:103A100000F048FB36A3D3E9002300F08FF93246CB
:103A20003B4600F03FFB34A3D3E9002300F088F9C4
:103A30000E9BCDE900019BB30022334B4046494623
:103A400000F030FBDDE90023CDE902015046594684
:103A500000F028FB02460B46DDE9020100F06EF99A
:103A600032463B4600F01EFB42464B4600F066F9EC
:103A700023A3D3E9002306460F465046594600F0DB
:103A800011FB02460B463046394600F059F9024612
:103A90000B462846214600F051F905B0BDE8F08FED
:103AA00002460B463046394600F0FCFA14A3D3E92F
:103AB000002300F043F952465B4600F0F3FA2A4631
:103AC000234600F03DF905B0BDE8F08F28462146B9
:103AD00005B0BDE8F08F00BF7CD5CF5A3AD9E53D9F
:103AE000EB9C2B8AE6E55A3E7DFEB157E31DC73EAF
:103AF000D561C119A0012A3FA6F810111111813F0B
:103B0000495555555555C53F0000E03F21F000414E
:103B1000704700BFFFFFFFFFC1F30A522DE9F843D2
:103B2000A2F2FF36132E0B460D4604468846074682
:103B30001CDC002E3FDB3A4A42FA06F901EA090290
:103B40000243864617D034A3D3E9002300F0F8F8E7
:103B50000022002300F036FD20B1002D40DB28EAD2
:103B60000905002738462946BDE8F883332E06DDCF
:103B7000B6F5806F2FD020461946BDE8F883A2F233
:103B800013424FF0FF3929FA02F910EA090FF2D077
:103B900021A3D3E9002300F0D3F80022002300F092
:103BA00011FD0028DED0002D20DB454627EA09075D
:103BB00038462946D8E718A3D3E9002300F0C0F817
:103BC0000022002300F0FEFC0028CBD0002D18DBE3
:103BD00000273D46C6E702460B4600F0B1F8CCE7A9
:103BE0004FF4801343FA06F6B044B8E7142E10D011
:103BF0000123C6F1340603FA06F6371928BF9844A4
:103C0000D3E725F00042074B224318BF1D4600278B
:103C1000A8E705F10108C8E79C7500883CE4377EF9
:103C2000FFFF0F000000F0BFF8B5C1F30A560446CD
:103C30000D460B46174606BB21F00043034325D033
:103C40000022354B00F02EFA344A974204460D46C6
:103C50000B462ADBC1F30A56363E3E4440F2FE7262
:103C6000964228DC002E12DD23F0FF4323F4E0030C
:103C700043EA065520462946F8BD40F2FF729642B7
:103C8000EBD102460B4600F05BF8F8BDF8BD16F12B
:103C9000350F1DDA4CF250339F4222462B4625DC6D
:103CA00019A1D1E9000100F03DF817A3D3E90023E1
:103CB00000F0F8F9F8BD22462B4615A1D1E9000124
:103CC00000F030F812A3D3E9002300F0EBF9F8BDBF
:103CD00023F0FF4323F4E003363643EA065520463B
:103CE000294600220E4B00F0DDF9F8BD08A1D1E90C
:103CF000000100F017F806A3D3E9002300F0D2F981
:103D0000F8BD00BFAFF3008059F3F8C21F6EA501E4
:103D10009C7500883CE4377E00005043B03CFFFFB8
:103D20000000903C03F0004321F0004242EA03010E
:103D3000704700BF81F0004102E000BF83F0004304
:103D400030B54FEA41044FEA430594EA050F08BF36
:103D500090EA020F1FBF54EA000C55EA020C7FEAFA
:103D6000645C7FEA655C00F0E2804FEA5454D4EB77
:103D70005555B8BF6D420CDD2C4480EA020281EA41
:103D8000030382EA000083EA010180EA020281EA79
:103D90000303362D88BF30BD11F0004F4FEA0131CB
:103DA0004FF4801C4CEA113102D0404261EB4101DA
:103DB00013F0004F4FEA03334CEA133302D0524260
:103DC00063EB430394EA050F00F0A780A4F101041C
:103DD000D5F1200E0DDB02FA0EFC22FA05F2801856
:103DE00041F1000103FA0EF2801843FA05F359413C
:103DF0000EE0A5F120050EF1200E012A03FA0EFCBB
:103E000028BF4CF0020C43FA05F3C01851EBE371E4
:103E100001F0004507D54FF0000EDCF1000C7EEB01
:103E200000006EEB0101B1F5801F1BD3B1F5001F3F
:103E30000CD349085FEA30004FEA3C0C04F101045E
:103E40004FEA445212F5800F80F09A80BCF1004F87
:103E500008BF5FEA500C50F1000041EB045141EA09
:103E6000050130BD5FEA4C0C404141EB010111F40A
:103E7000801FA4F10104E9D191F0000F04BF0146B5
:103E80000020B1FA81F308BF2033A3F10B03B3F193
:103E900020020CDA0C3208DD02F1140CC2F10C0223
:103EA00001FA0CF021FA02F10CE002F11402D8BF81
:103EB000C2F1200C01FA02F120FA0CFCDCBF41EA4D
:103EC0000C019040E41AA2BF01EB0451294330BD1C
:103ED0006FEA04041F3C1CDA0C340EDC04F11404F9
:103EE000C4F1200220FA04F001FA02F340EA0300D0
:103EF00021FA04F345EA030130BDC4F10C04C4F116
:103F0000200220FA02F001FA04F340EA03002946F5
:103F100030BD21FA04F0294630BD94F0000F83F43F
:103F2000801306BF81F480110134013D4EE77FEA22
:103F3000645C18BF7FEA655C29D094EA050F08BF6E
:103F400090EA020F05D054EA000C04BF194610464F
:103F500030BD91EA030F1EBF0021002030BD5FEA93
:103F6000545C05D14000494128BF41F0004130BDBB
:103F700014F580043CBF01F5801130BD01F000450F
:103F800045F0FE4141F470014FF0000030BD7FEA82
:103F9000645C1ABF194610467FEA655C1CBF0B467D
:103FA000024650EA013406BF52EA033591EA030F94
:103FB00041F4002130BD00BF90F0000F04BF00218C
:103FC000704730B54FF4806404F132044FF00005BF
:103FD0004FF0000150E700BF90F0000F04BF002138
:103FE000704730B54FF4806404F1320410F000459E
:103FF00048BF40424FF000013EE700BF42004FEA99
:10400000E2014FEA31014FEA02701FBF12F07F4315
:1040100093F07F4F81F06051704792F0000F14BF12
:1040200093F07F4F704730B54FF4607401F0004556
:1040300021F0004120E700BF50EA010208BF7047AD
:1040400030B54FF000050AE050EA010208BF7047A2
:1040500030B511F0004502D5404261EB41014FF40B
:10406000806404F132045FEA915C3FF4DCAE4FF00F
:1040700003025FEADC0C18BF03325FEADC0C18BFF6
:10408000033202EBDC02C2F1200300FA03FC20FA47
:1040900002F001FA03FE40EA0E0021FA02F1144494
:1040A000C1E600BF70B54FF0FF0C4CF4E06C1CEAA9
:1040B00011541DBF1CEA135594EA0C0F95EA0C0F1E
:1040C00000F0DEF82C4481EA030621EA4C5123EA91
:1040D0004C5350EA013518BF52EA033541F48011C0
:1040E00043F4801338D0A0FB02CE4FF00005E1FB73
:1040F00002E506F00042E0FB03E54FF00006E1FBBD
:1041000003569CF0000F18BF4EF0010EA4F1FF04FF
:10411000B6F5007F64F5407404D25FEA4E0E6D413F
:1041200046EB060642EAC62141EA55514FEAC52050
:1041300040EA5E504FEACE2EB4F1FD0C88BFBCF5CC
:10414000E06F1ED8BEF1004F08BF5FEA500E50F17D
:10415000000041EB045170BD06F0004646EA010143
:1041600040EA020081EA0301B4EB5C04C2BFD4EB75
:104170000C0541EA045170BD41F480114FF0000E6E
:10418000013C00F3AB8014F1360FDEBF002001F0DC
:10419000004170BDC4F10004203C35DA0C341BDC56
:1041A00004F11404C4F1200500FA05F320FA04F028
:1041B00001FA05F240EA020001F0004221F000415C
:1041C00010EBD37021FA04F642EB06015EEA430ECF
:1041D00008BF20EAD37070BDC4F10C04C4F12005FF
:1041E00000FA04F320FA05F001FA04F240EA0200B2
:1041F00001F0004110EBD37041F100015EEA430E83
:1042000008BF20EAD37070BDC4F1200500FA05F2A2
:104210004EEA020E20FA04F301FA05F243EA020321
:1042200021FA04F001F0004121FA04F220EA020030
:1042300000EBD3705EEA430E08BF20EAD37070BD76
:1042400094F0000F0FD101F00046400041EB010156
:1042500011F4801F08BF013CF7D041EA060195F038
:10426000000F18BF704703F00046520043EB0303F2
:1042700013F4801F08BF013DF7D043EA06037047DF
:1042800094EA0C0F0CEA135518BF95EA0C0F0CD0EA
:1042900050EA410618BF52EA4306D1D181EA030130
:1042A00001F000414FF0000070BD50EA410606BF2A
:1042B0001046194652EA430619D094EA0C0F02D16F
:1042C00050EA013613D195EA0C0F05D152EA0336B4
:1042D0001CBF104619460AD181EA030101F00041D2
:1042E00041F0FE4141F470014FF0000070BD41F01B
:1042F000FE4141F4780170BD70B54FF0FF0C4CF4F5
:10430000E06C1CEA11541DBF1CEA135594EA0C0F13
:1043100095EA0C0F00F0A7F8A4EB050481EA030E60
:1043200052EA03354FEA013100F088804FEA033347
:104330004FF0805545EA131343EA12634FEA022215
:1043400045EA111545EA10654FEA00260EF00041D6
:104350009D4208BF964244F1FD0404F5407402D228
:104360005B084FEA3202B61A65EB03055B084FEAB9
:1043700032024FF480104FF4002CB6EB020E75EBB6
:10438000030E22BFB61A754640EA0C005B084FEADE
:104390003202B6EB020E75EB030E22BFB61A75465B
:1043A00040EA5C005B084FEA3202B6EB020E75EBA6
:1043B000030E22BFB61A754640EA9C005B084FEA1E
:1043C0003202B6EB020E75EB030E22BFB61A75462B
:1043D00040EADC0055EA060E18D04FEA051545EA1A
:1043E00016754FEA06164FEAC30343EA52734FEAC3
:1043F000C2025FEA1C1CC0D111F4801F0BD141EA3C
:1044000000014FF000004FF0004CB6E711F4801FA0
:1044100004BF01430020B4F1FD0C88BFBCF5E06F80
:104420003FF6AFAEB5EB030C04BFB6EB020C5FEA90
:10443000500C50F1000041EB045170BD0EF0004EE5
:104440004EEA113114EB5C04C2BFD4EB0C0541EA17
:10445000045170BD41F480114FF0000E013C90E614
:1044600045EA060E8DE60CEA135594EA0C0F08BFD8
:1044700095EA0C0F3FF43BAF94EA0C0F0AD150EAD7
:1044800001347FF434AF95EA0C0F7FF425AF10466A
:1044900019462CE795EA0C0F06D152EA03353FF492
:1044A000FDAE1046194622E750EA410618BF52EA0F
:1044B00043067FF4C5AE50EA41047FF40DAF52EAE3
:1044C00043057FF4EBAE12E74FF0FF3C06E000BF80
:1044D0004FF0010C02E000BF4FF0010C4DF804CD8D
:1044E0004FEA410C7FEA6C5C4FEA430C18BF7FEA4D
:1044F0006C5C1BD001B050EA410C0CBF52EA430C7B
:1045000091EA030F02BF90EA020F0020704710F1FA
:10451000000F91EA030F58BF994208BF90422CBF89
:10452000D8176FEAE37040F0010070474FEA410C82
:104530007FEA6C5C02D150EA013C07D14FEA430CA0
:104540007FEA6C5CD6D152EA033CD3D05DF8040B11
:10455000704700BF8446104662468C461946634643
:1045600000E000BF01B5FFF7B7FF002848BF10F11A
:10457000000F01BD4DF808EDFFF7F4FF0CBF01205F
:1045800000205DF808FB00BF4DF808EDFFF7EAFFDB
:1045900034BF012000205DF808FB00BF4DF808ED96
:1045A000FFF7E0FF94BF012000205DF808FB00BF8B
:1045B0004DF808EDFFF7CEFF94BF012000205DF815
:1045C00008FB00BF4DF808EDFFF7C4FF34BF012022
:1045D00000205DF808FB00BF4FEA410C7FEA6C5CED
:1045E00002D150EA013C0AD14FEA430C7FEA6C5CED
:1045F00002D152EA033C02D14FF0000070474FF065
:10460000010070474FEA410212F5001215D211D590
:104610006FF47873B3EB625212D94FEAC12343F0BF
:10462000004343EA505311F0004F23FA02F018BF41
:10463000404270474FF00000704750EA013005D10A
:1046400011F0004008BF6FF0004070474FF00000CD
:10465000704700BF4A0011D212F5001211D20DD5D9
:104660006FF47873B3EB62520ED44FEAC12343F078
:10467000004343EA505323FA02F070474FF0000022
:10468000704750EA013002D14FF0FF3070474FF0D1
:104690000000704780F0004002E000BF81F0004160
:1046A00042001FBF5FEA410392EA030F7FEA226CD8
:1046B0007FEA236C6AD04FEA1262D2EB1363C1BF68
:1046C000D218414048404140B8BF5B42192B88BFD7
:1046D000704710F0004F40F4000020F07F4018BFFA
:1046E000404211F0004F41F4000121F07F4118BF1A
:1046F000494292EA030F3FD0A2F1010241FA03FCC2
:1047000010EB0C00C3F1200301FA03F100F00043A9
:1047100002D5494260EB4000B0F5000F13D3B0F171
:10472000807F06D340084FEA310102F10102FE2AE0
:1047300051D2B1F1004F40EBC25008BF20F0010050
:1047400040EA03007047490040EB000010F4000FFE
:10475000A2F10102EDD1B0FA80FCACF1080CB2EB91
:104760000C0200FA0CF0AABF00EBC25052421843F0
:10477000BCBFD0401843704792F0000F81F4000195
:1047800006BF80F400000132013BB5E74FEA410368
:104790007FEA226C18BF7FEA236C21D092EA030FD4
:1047A00004D092F0000F08BF0846704790EA010F4E
:1047B0001CBF0020704712F07F4F04D1400028BF7B
:1047C00040F00040704712F100723CBF00F500005D
:1047D000704700F0004343F0FE4040F40000704793
:1047E0007FEA226216BF08467FEA2363014642023F
:1047F00006BF5FEA412390EA010F40F48000704752
:104800004FF0000304E000BF10F0004348BF4042F7
:104810005FEA000C08BF704743F0964301464FF033
:1048200000001CE050EA010208BF70474FF000038F
:104830000AE000BF50EA010208BF704711F00043D0
:1048400002D5404261EB41015FEA010C02BF8446A0
:104850000146002043F0B64308BFA3F18053A3F5FF
:104860000003BCFA8CF2083AA3EBC25310DB01FA46
:1048700002FC634400FA02FCC2F12002BCF1004FCA
:1048800020FA02F243EB020008BF20F0010070475B
:1048900002F1200201FA02FCC2F1200250EA4C00AF
:1048A00021FA02F243EB020008BF20EADC707047F5
:1048B0004FF0FF0C1CEAD0521EBF1CEAD15392EA03
:1048C0000C0F93EA0C0F6FD01A4480EA010C4002DF
:1048D00018BF5FEA41211ED04FF0006343EA501039
:1048E00043EA5111A0FB01310CF00040B1F5000F7B
:1048F0003EBF490041EAD3715B0040EA010062F12A
:104900007F02FD2A1DD8B3F1004F40EBC25008BF13
:1049100020F00100704790F0000F0CF0004C08BF31
:1049200049024CEA502040EA51207F3AC2BFD2F1FE
:10493000FF0340EAC250704740F400004FF000030C
:10494000013A5DDC12F1190FDCBF00F00040704746
:10495000C2F10002410021FA02F1C2F1200200FA84
:1049600002FC5FEA310040F1000053EA4C0308BF4B
:1049700020EADC70704792F0000F00F0004C02BF9C
:10498000400010F4000F013AF9D040EA0C0093F017
:10499000000F01F0004C02BF490011F4000F013B71
:1049A000F9D041EA0C018FE70CEAD15392EA0C0FDF
:1049B00018BF93EA0C0F0AD030F0004C18BF31F04A
:1049C000004CD8D180EA010000F00040704790F020
:1049D000000F17BF90F0004F084691F0000F91F0C4
:1049E000004F14D092EA0C0F01D142020FD193EA8A
:1049F0000C0F03D14B0218BF084608D180EA010012
:104A000000F0004040F0FE4040F40000704740F0ED
:104A1000FE4040F4400070474FF0FF0C1CEAD052BB
:104A20001EBF1CEAD15392EA0C0F93EA0C0F69D017
:104A3000A2EB030280EA010C49024FEA402037D082
:104A40004FF0805343EA111143EA10130CF0004079
:104A50008B4238BF5B0042F17D024FF4000C8B4269
:104A600024BF5B1A40EA0C00B3EB510F24BFA3EB49
:104A7000510340EA5C00B3EB910F24BFA3EB910319
:104A800040EA9C00B3EBD10F24BFA3EBD10340EA73
:104A9000DC001B0118BF5FEA1C1CE0D1FD2A3FF6B9
:104AA00050AF8B4240EBC25008BF20F0010070476E
:104AB0000CF0004C4CEA50207F32C2BFD2F1FF0311
:104AC00040EAC250704740F400004FF00003013A42
:104AD00037E792F0000F00F0004C02BF400010F4E6
:104AE000000F013AF9D040EA0C0093F0000F01F0FA
:104AF000004C02BF490011F4000F013BF9D041EA1C
:104B00000C0195E70CEAD15392EA0C0F08D142024E
:104B10007FF47DAF93EA0C0F7FF470AF084676E721
:104B200093EA0C0F04D14B023FF44CAF08466EE7FA
:104B300030F0004C18BF31F0004CCAD130F00042C8
:104B40007FF45CAF31F000437FF43CAF5FE700BF20
:104B50004FF0FF3C06E000BF4FF0010C02E000BF49
:104B60004FF0010C4DF804CD4FEA40024FEA4103EB
:104B70007FEA226C18BF7FEA236C11D001B052EAA1
:104B8000530C18BF90EA010F58BFB2EB030088BF67
:104B9000C81738BF6FEAE17018BF40F001007047D6
:104BA0007FEA226C02D15FEA402C05D17FEA236CB8
:104BB000E4D15FEA412CE1D05DF8040B704700BFFF
:104BC000844608466146FFE70FB5FFF7C9FF002896
:104BD00048BF10F1000F0FBD4DF808EDFFF7F4FFCF
:104BE0000CBF012000205DF808FB00BF4DF808ED68
:104BF000FFF7EAFF34BF012000205DF808FB00BF8B
:104C00004DF808EDFFF7E0FF94BF012000205DF8AC
:104C100008FB00BF4DF808EDFFF7D2FF94BF01205D
:104C200000205DF808FB00BF4DF808EDFFF7C8FF56
:104C300034BF012000205DF808FB00BF13460A4680
:104C40000146022000F004BB014B1868704700BF0A
:104C5000E88DFF1F70B50F4E0F4D761BB61018BFB5
:104C6000002405D0013455F8043B9847A642F9D1F9
:104C70000A4E0B4D761B00F035FFB61018BF00240E
:104C800006D0013455F8043B9847A642F9D170BDCF
:104C900070BD00BFF05A0000F05A0000005B000039
:104CA000F05A0000024B0146186800F003B800BF3C
:104CB000E88DFF1F2DE9F04F01F10B05162D83B094
:104CC000064640F29F8035F0070500F1BF80A942FB
:104CD00000F2BC8000F0A6FAB5F5FC7FC0F09C8223
:104CE0006B0A00F0BA80042B00F28381A80900F15E
:104CF000390E4FEA4E033830C44F07EB8303A3F15C
:104D000008015C68A14207D1ACE0002A80F2AC80C7
:104D1000E468A14200F0A680636823F003035A1BF5
:104D20000F2AF2DDB9493C6901F1080E744500F023
:104D3000B381636823F003035A1B0F2A00F39981A0
:104D4000002AC1F814E0C1F810E080F29E80B3F5AB
:104D5000007F80F06781DB0803F1010C01229B10CA
:104D600002FA03F34A6851F83C80C4F8088001EB6A
:104D7000CC091A43A9F10803E3604A6041F83C40BA
:104D8000C8F80C40831001249C40944200F28A80B1
:104D9000144206D120F003006400144200F1040024
:104DA000FAD007EBC009CC468046DCF80C108C45E5
:104DB00007D173E1002A80F28181C9688C4500F037
:104DC0006D814B6823F003035A1B0F2AF2DD0C465A
:104DD000D1F80CC054F8088F4B1945F001054D600F
:104DE00042F00101C8F80CC03046CCF808807B6165
:104DF0003B61C3F80CE0C3F808E059609A5000F03A
:104E000013FA1FE0102921D800F00CFA1025062310
:104E100002207E4F07EB8303A3F108025C689442F3
:104E200000F045816368E168A56823F0030323442B
:104E300030465A68E96042F001028D605A6000F025
:104E4000F3F90834204603B0BDE8F08F00240C23AA
:104E50002046336003B0BDE8F08F80234FF0400E52
:104E60003F2049E770465DE72344E1685A68A5683A
:104E700042F00102E96030468D605A6000F0D4F9DA
:104E80000834204603B0BDE8F08F234430465A680A
:104E900042F001025A6000F0C7F90834204603B01E
:104EA000BDE8F08FBC68636823F00308A84504D30D
:104EB000C5EB08030F2B00F38C80554BDFF8609196
:104EC0001A68D9F8003001332A4404EB080A00F0CC
:104ED000608102F580520F3222F47F6222F00F02CD
:104EE00011463046019200F0A1F9B0F1FF3F834630
:104EF000019A00F05881824500F2FC80454B196808
:104F0000DA451144196000F05381D9F80000DFF848
:104F100010E101301BBFCAEB0B0A5144CEF800B0C0
:104F200019601BF0070100F01781C1F10800C1F5FD
:104F30008051834408315A44C2F30B02C2EB010989
:104F400049463046019300F071F9431C019B00F083
:104F50003F81CBEB00024A4442F001021968C7F8D6
:104F600008B04944BC42CBF804201960DFF8A49093
:104F700016D0B8F10F0F40F2FD806268A8F10C0363
:104F800023F00703E01802F001024FF0050E1A4368
:104F90000F2B6260C0F804E0C0F808E000F21C814A
:104FA0001D4BBC681A68914288BF19601B4B1A6878
:104FB0009142626888BF196022F003029542A2EB19
:104FC000050301D80F2B04DC304600F02DF9002436
:104FD00038E7621943F0010345F00105656030468A
:104FE000BA60536000F020F90834204603B0BDE8F1
:104FF000F08F142B71D9542B00F2A480280B00F1F0
:105000006F0E4FEA4E036E3076E600BFEC8DFF1F49
:10501000C496FF1FC896FF1FC096FF1FBC96FF1FB8
:10502000F891FF1F5A0A042A5ED9142A00F2B380AD
:1050300002F15C0149005B3207EB810C57F821104B
:10504000DFF8DC81ACF1080C8C4500F088804A6800
:1050500022F00302934202D289688C45F7D1D1F83D
:105060000CC07A68C4F80CC0A160CCF80840CC60D1
:1050700088E6631942F0010745F001056560304696
:105080004B610B61C3F80CE0C3F808E05F609A5015
:10509000083400F0C9F8D5E64A6873E608F101085B
:1050A00018F0030F0CF1080C7FF47FAE30E0DC68E1
:1050B000A34208BF02303FF435AEB3E60B440C46C2
:1050C0005A68C96854F8085F42F001025A603046D5
:1050D000E9608D6000F0A8F8B4E603F15C0E03F11E
:1050E0005B004FEA4E0307E69A0902F139014900D5
:1050F0003832A1E7BC424A4B3FF400AF9C6862687B
:1051000022F003025AE759F80839994540F08280A5
:1051100010F0030F00F1FF30F5D17B6823EA0403A0
:105120007B6064009C423FF6BDAE002C3FF4BAAEFB
:105130001C4240467FF435AE64001C4200F104007E
:10514000FAD02EE6B3F5AA7F18D8E80B00F1780E56
:105150004FEA4E037730CFE54FF48051EBE6012163
:10516000D8F80430921001FA02F21A43C8F8042069
:10517000614677E70123CBF8043025E740F254522B
:10518000934220D8A80C00F17D0E4FEA4E037C30EC
:10519000B2E51032A4E6542A26D81A0B02F16F01A8
:1051A00049006E3248E7BC68626822F0030205E7F6
:1051B000CAF30B0000287FF4A8AE4244BB6842F05B
:1051C00001025A60ECE6FE234FF07F0E7E2093E54D
:1051D00001224FF00009C1E604F10801304600F059
:1051E000FBF8D9F80010DBE6B2F5AA7F05D8DA0B98
:1051F00002F17801490077321EE740F254518A42A9
:1052000005D89A0C02F17D0149007C3214E7FE2199
:105210007E2211E77B6884E7E808431C5B00F8E521
:10522000EC8DFF1F704700BF704700BF38B5074CBB
:105230000023054608462360FBF72CFE431C00D0E4
:1052400038BD2368002BFBD02B6038BD0497FF1FAF
:105250002DE9F047254C2568D5F848410646884693
:1052600092469946C4B360681F2817DC431C76B188
:1052700004EB80050122C5F888A0D4F8881182408B
:105280001143022EC4F88811C5F808911ED00230CF
:10529000636044F820800020BDE8F087144B03B31E
:1052A0004FF4C870FFF7FEFC0446D0B1D5F8483182
:1052B000002780E88800C5F8484138460123C4F833
:1052C0008871C4F88C71002EE1D0D1E7D4F88C112C
:1052D0000A43C4F88C21DAE705F5A674C5F84841FD
:1052E000C1E74FF0FF30BDE8F08700BFE05A000093
:1052F000A54C0000024B13B1024800F005B87047FE
:105300000000000015530000002301461A4618460D
:10531000FFF79EBF38B5074D074C2C1BA41005D0D6
:10532000013C55F8043D9847002CF9D1BDE83840C0
:1053300000F0E6BB0000000000000000F8B5234FBD
:105340000C460646FFF76EFFBB685D6825F0030557
:10535000291B01F6EF7121F47F6121F00F01A1F506
:105360008054B4F5805F07DB00213046FFF75EFF15
:10537000BB682B44984204D03046FFF755FF00200D
:10538000F8BD61423046FFF751FF01300DD0104BA0
:10539000BA6819682D1B45F001053046091B556098
:1053A0001960FFF741FF0120F8BD00213046FFF7EB
:1053B0003DFFBA68831A0F2BDEDD064C04492468D2
:1053C00043F00103001B53600860D5E7EC8DFF1F1D
:1053D000C896FF1FF891FF1F002945D02DE9F04125
:1053E0000D468046FFF71EFF55F8047C6A4927F0FA
:1053F0000103A5F10804E2188E685068B24220F05B
:10540000030062D0FE0750600BD455F8087CE41B03
:1054100001F1080EA56875453B446FD0E768EF6061
:10542000BD6015186D68ED0742D543F0010262605A
:10543000E350B3F5007F18D2DB085A1C4D6851F8D1
:105440003270A76001209B1000FA03F301EBC20049
:105450001D430838E0604D6041F83240FC60404632
:10546000BDE8F041FFF7E0BE70475A0A042A53D85E
:105470009A0902F139077F0002F1380501EB870034
:1054800051F827204449083890424DD0516821F006
:1054900003018B4202D292689042F7D1D068E0605B
:1054A000A2608460D4604046BDE8F041FFF7BCBE16
:1054B00095683A4FBD4203443FD0D068E86043F05E
:1054C000010285606260E350B3E7FF07034407D43D
:1054D00055F8082CA41A1344A068E268C2609060D2
:1054E0002F4A126843F00100934260608C60B6D38B
:1054F0002C4B40461968FFF721FFB0E711184968A7
:10550000C90744D49168D268CA60034443F00100DB
:1055100091606060E350A2E7142A17D802F15C079B
:105520007F0002F15B05A9E7AA104B68012505FA87
:1055300002F213434B600246B1E743F001024C61B3
:105540000C61E560A5606260E35088E7542A06D8E4
:105550001A0B02F16F077F0002F16E058EE7B2F5BC
:10556000AA7F06D8DA0B02F178077F0002F17705EF
:1055700084E740F25450824206D89A0C02F17D072B
:105580007F0002F17C0579E7FE277E2576E743F070
:1055900001026260E35062E7EC8DFF1FF48DFF1F94
:1055A000F491FF1FC496FF1FC8000000C90000004F
:1055B000CA000000CB000000CC000000CD000000BD
:1055C000CE000000CF000000D0000000D10000009D
:1055D000D2000000D3000000D4000000D50000007D
:1055E000D6000000D7000000D8000000D90000005D
:1055F000DA000000DB000000DC000000DD0000003D
:10560000DE000000DF000000E0000000E10000001C
:10561000E2000000E3000000E4000000E5000000FC
:10562000E6000000E7000000E8000000E9000000DC
:10563000EA000000EB000000EC000000ED000000BC
:10564000EE000000EF000000F0000000F10000009C
:10565000F2000000F3000000F4000000F50000007C
:10566000F6000000F7000000F8000000F90000005C
:10567000F9000000F8000000F7000000F60000004C
:10568000F5000000F4000000F3000000F20000004C
:10569000F1000000F0000000EF000000EE0000004C
:1056A000ED000000EC000000EB000000EA0000004C
:1056B000E9000000E8000000E7000000E60000004C
:1056C000E5000000E4000000E3000000E20000004C
:1056D000E1000000E0000000DF000000DE0000004C
:1056E000DD000000DC000000DB000000DA0000004C
:1056F000D9000000D8000000D7000000D60000004C
:10570000D5000000D4000000D3000000D20000004B
:10571000D1000000D0000000CF000000CE0000004B
:10572000CD000000CC000000CB000000CA0000004B
:10573000C9000000C80000000D0AFFFF6E616E0086
:105740006F766600696E6600050E08090D0C060787
:105750000F0400130393050E08090D0C06070F0430
:10576000FFFFC585848687C4FFFF001303931A9249
:1057700017FFFFFF4008FE4340A004404408FE43DB
:1057800044A004400018FE4300C004403000FE4323
:10579000309004403400FE43349004401C18FE4313
:1057A0001CC004401018FE4310C004400818FE43FB
:1057B00008C004400C18FE430CC004400C10FE430B
:1057C0000CB004401010FE4310B004401810FE430B
:1057D00018B004401C10FE431CB004401410FE43DB
:1057E00014B004400418FE4304C004400010FE43FB
:1057F00000B004400008FE4300A004400408FE433B
:1058000004A004400C08FE430CA004400808FE431A
:1058100008A004401418FE4314C004401818FE43A6
:1058200018C004400410FE4304B004400810FE43B6
:1058300008B004401400FE43149004404C08FE439A
:105840004CA004400420FE4304D004402410FE4336
:1058500024B004402010FE4320B004402810FE4332
:1058600028B004402C10FE432CB004400020FE431E
:1058700000D004404808FE4348A004401000FE4306
:1058800010900440000000000000000019200000FB
:10589000112000000D20000009200000052000005C
:1058A00001200000FD1F0000F91F00000015191560
:1058B000000100001889FF1F120000000002000014
:1058C0004489FF1F4300000000030000A089FF1F60
:1058D00000000000010309042C89FF1F00000000E4
:1058E000020309048889FF1F000000000303090464
:1058F000A489FF1F0000000000000000000000005D
:1059000000000000FB21F93FFB2109407CD9124037
:10591000FB2119407A6A1F407CD92240BBFD2540FB
:10592000FB2129403A462C407A6A2F405C4731409F
:105930007CD932409C6B3440BBFD3540DB8F374017
:10594000FB2139401BB43A403A463C405AD83D40CE
:105950007A6A3F404C7E40405C4741406C10424078
:105960007CD942408CA243409C6B4440AC344540BF
:10597000BBFD4540CBC64640DB8F4740EB58484017
:10598000FB21494083F9A200444E6E00FC2915001A
:10599000D1572700DD34F50062DBC0003C9995004B
:1059A000419043006351FE00BBDEAB00B761C50010
:1059B0003A6E2400D24D42004906E00009EA2E006A
:1059C0001C92D100EB1DFE0029B11C00E83EA7008F
:1059D000F535820044BB2E009CE98400B42670009B
:1059E000417E5F00D6913900538339009CF4390021
:1059F0008B5F840028F9BD00F81F3B00DEFF970095
:105A00000F980500112FEF000A5A8B006D1F6D00D3
:105A1000CF7E360009CB2700464FB7009E663F0079
:105A20002DEA5F00BA277500E5EBC7003D7BF1006A
:105A3000F739070092528A00FB6BEA001FB15F0042
:105A4000085D8D00300356007BFC4600F0AB6B0018
:105A500020BCCF0036F49A00E3A91D005E619100DE
:105A6000081BE60085996500A0145F008D40680062
:105A700080D8FF0027734D0006063100CA56150076
:105A8000C9A873007BE260006B8CC00002000000BC
:105A9000030000000400000006000000FFFFFFFFFD
:105AA00000000040FB21F93F000000002D44743E3F
:105AB000000000809846F83C0000006051CC783B24
:105AC00000000080831BF0390000004020257A3858
:105AD000000000802282E336000000001DF36935DB
