:1000000000800020BD01000009090000C1080000B7
:10001000C1080000C1080000C1080000C1080000BC
:10002000C1080000C1080000C10800000909000063
:1000300009090000C1080000A11C0000A51C000067
:100040000909000009090000090900000909000068
:100050000909000009090000090900000909000058
:100060000909000009090000090900000909000048
:100070000909000009090000090900000909000038
:100080000909000009090000090900000909000028
:100090000909000009090000090900000909000018
:1000A0000909000009090000090900000909000008
:1000B00009090000090900000909000009090000F8
:1000C00009090000090900000909000009090000E8
:1000D00009090000090900000909000009090000D8
:1000E00009090000090900000909000009090000C8
:1000F00009090000090900000909000009090000B8
:1001000009090000090900000909000009090000A7
:100110000909000009090000090900000909000097
:100120000909000009090000090900000909000087
:100130000909000009090000090900000909000077
:100140000909000009090000090900000909000067
:10015000FD1C0000111D0000251D0000391D0000C0
:1001600009090000FD0E000009090000090900004E
:100170000909000009090000090900000909000037
:100180000909000009090000090900000909000027
:100190000909000009090000090900000909000017
:1001A0000909000009090000090900000909000007
:1001B000090900000909000009090000564B4CF22A
:1001C000205210B51A804DF628121A8000BF00BFC9
:1001D00000F09EFB514B4FF010621A60504A9A603B
:1001E000504ADA60504A136813F4807304D14F49BF
:1001F0000B604FF4A85313604D4B1A78110703D5C9
:100200001A7842F008021A704A4B4B492A221A7097
:100210004A4A4B4B8B4204D252F8040F43F8040B6A
:10022000F8E7484B484900228B4202D243F8042B9E
:10023000FAE74649464A002352F8230041F82300D2
:1002400001336F2BF8D1434B434A802103F8011B44
:100250009342FBD1414B3D4A1A60414B8A221A70AE
:10026000A3F5805324225A70A0221A709A7992071B
:10027000FCD59A79D406FCD43A4A937903F00C035E
:10028000082B384BF9D105221A7143225A719A79F9
:100290009006FCD5334A9179324B4906FBD5324A58
:1002A0004FF0817111600521516020221A709A79F6
:1002B00002F00C020C2AFAD12C4B2D4A1A602D4B5D
:1002C0002D4A1A6000225A60072243F8042C2B4A58
:1002D000C3F80C2D62B600F0FBFC144B1B68DA0768
:1002E00005D5274800F07AFB264B274A1A60274B92
:1002F0001B785B0609D5234C234B22689A4204D114
:100300001F4800F06BFB0023236003F049FE00F060
:1003100005FB00F0CDFAFEE70E20054030800440DA
:10032000823F04000100002B10D0034014D0034092
:1003300002D0074000E00740208CFF1F4844000027
:100340002087FF1F208CFF1F948DFF1F0082FF1F3F
:100350000000000000E400E05FE400E008ED00E0E1
:1003600000500640004006404480044004800440A1
:10037000C010050014E000E03F190100000020203B
:100380001DA44B5F1CE00340A5C3945A00F0074036
:10039000FFFFFFFFFFFFFFFFFFFFFFFFFFFFFFFF6D
:1003A000FFFFFFFFFFFFFFFFFFFFFFFFFFFFFFFF5D
:1003B000FFFFFFFFFFFFFFFFFFFFFFFFFFFFFFFF4D
:1003C000FFFFFFFFFFFFFFFFFFFFFFFFFFFFFFFF3D
:1003D000FFFFFFFFFFFFFFFFFFFFFFFFFFFFFFFF2D
:1003E000FFFFFFFFFFFFFFFFFFFFFFFFFFFFFFFF1D
:1003F000FFFFFFFFFFFFFFFFFFFFFFFFFFFFFFFF0D
:10040000FFFFFFFFFFFFFFFFFFFFFFFFDEF9FFFF23
:1004100010B5054C237833B9044B13B10448AFF33E
:1004200000800123237010BD208CFF1F00000000FE
:1004300044440000084B10B51BB108490848AFF30D
:1004400000800848036803B910BD074B002BFBD0A0
:10045000BDE81040184700BF00000000248CFF1FBB
:1004600044440000208CFF1F0000000010B5194C10
:1004700000231720237000F0C7FB012813D01120A0
:1004800000F0C2FB012817D0102000F0BDFB0128AE
:100490001BD0122000F0B8FB0128207804BF40F0E8
:1004A0000800207010BD2378112043F00103237051
:1004B00000F0AAFB0128E7D12378102043F00203C3
:1004C000237000F0A1FB0128E3D1237843F004035B
:1004D0002370DEE7458CFF1FF8B506460F46002463
:1004E000802502E00134082C0AD045FA04F3334297
:1004F000F8D0E0B20121013400F080FB082CF4D1E7
:100500000024802545FA04F33B4203D10134042C36
:10051000F8D1F8BD04F10800C0B2012100F06EFB73
:10052000F4E700BFF8B506460F460024802502E038
:100530000134082C0AD045FA04F33342F8D0E0B273
:100540000021013400F05AFB082CF4D1002480254E
:1005500045FA04F33B4203D10134042CF8D1F8BD31
:1005600004F10800C0B2002100F048FBF4E700BF2E
:100570000E2838B557D0414B00221A700F286BD87F
:10058000DFE800F057090F151B21272D33393F45B0
:100590004B6A6A0838BD00218020BDE83840FFF76B
:1005A0009BBF00214020BDE83840FFF795BF0021E8
:1005B0002020BDE83840FFF78FBF00211020BDE8A4
:1005C0003840FFF789BF00210820BDE83840FFF719
:1005D00083BF00210420BDE83840FFF77DBF002124
:1005E0008020BDE83840FFF79DBF00214020BDE8D6
:1005F0003840FFF797BF00212020BDE83840FFF7C3
:1006000091BF00211020BDE83840FFF78BBF0021CB
:100610000820BDE83840FFF785BF00210420BDE871
:100620003840FFF77FBF154C23781BB3012323709D
:1006300038BD0024E5B2012128460C4400F0F2FA4E
:100640002846002100F0DAFA0C2CF3D101210D200C
:10065000BDE8384000F0D2BA0024E5B201212846B6
:100660000C4400F0DFFA2846002100F0C7FA0C2CF9
:10067000F3D1EBE7024800F0F1F8D7E7548CFF1F05
:10068000408CFF1F38B50021172000F0CBFA002165
:10069000112000F0C7FA0021102000F0C3FA002159
:1006A000122000F0BFFA0024E5B2012128460C44D4
:1006B00000F0B8FA2846002100F0A0FA0C2CF3D183
:1006C00001210E2000F0AEFA01210D2000F0AAFA5F
:1006D00001210E20BDE8384000F092B9F0B5254C5C
:1006E000254D2368254A2968254E126885B0019357
:1006F000019B33605B1A93420DD9224B224A197831
:10070000127881F001011970002A2AD00D2000F022
:1007100075FA33682B601D4D1D4EFFF7A7FE2B7831
:10072000307083421FD0236802931A4F1A491B4B23
:10073000029A3A6001270F701870236803931849D2
:10074000039B09689B1A8B4208D9134C23782BB161
:10075000124B1B78834209D000232370287005B008
:10076000F0BD0121D2E70B4B1A68E6E7FFF700FF67
:100770003078F1E7608CFF1F508CFF1F2C87FF1F24
:10078000488CFF1F468CFF1F4C8CFF1F448CFF1FA3
:10079000458CFF1F3C8CFF1F2887FF1F4D8CFF1FC0
:1007A0002487FF1F1421014800F002B8408CFF1F6E
:1007B00038B504460D46C8B2012100F033FA256071
:1007C000204638BD2DE9704F234882B00068019063
:1007D0001D46019814460E4603F034FA294603F0EC
:1007E0003DFB02F063FE01F0AFFB82468B462046E4
:1007F0004FF0804103F076F902F058FE8046204623
:10080000894602F053FE52465B4602F0A3FE0246C2
:100810000B464046494602F0EBFC03F035F900EB8D
:100820004000F6B2C40005250121304600F0E6F98B
:10083000214630466CB12346013BFDD1002100F03A
:10084000DDF92346013BFDD1013DEDD102B0BDE80C
:10085000708F00F0D3F9F7E7608CFF1F38B50546BD
:100860004FF47A74044B054A29682846FFF7AAFF1B
:10087000013CF7D138BD00BF0000F04100803B458E
:1008800010B5044601F018FA204610BD30B4054BEF
:10089000054A0649802400251C711D60184630BC9D
:1008A00001F04CBB588CFF1F2087FF1F8108000000
:1008B00008B5FFF7E7FEFFF711FF01F059F9FAE776
:1008C00008B5104C08E0236859050DD423681A05B3
:1008D0000FD42368DB0411D423685803F3D500F048
:1008E0000DFB23685905F1D500F00EF823681A05B1
:1008F000EFD500F009F82368DB04EDD500F004F82B
:10090000EAE700BF3480044008B5FFF7D9FF00BF15
:10091000014B10221A80704700200540704700BF2D
:1009200010B40F4B53F8302092F880422CB10123C1
:1009300069B182F8803010BC704703EBC0035B687C
:100940001A6841B922F002021A6010BC704782F89E
:10095000003110BC704742F003021A6010BC7047AF
:10096000DC4000001C4A02EBC00301295B6811D087
:1009700004291BD052F83000002280F8802229B1CF
:10098000022920D0032922D01A6070474FF48072C8
:100990001A60704752F830004FF4A27280F880124B
:1009A0001A601A6822F020021A60704752F830105C
:1009B0004FF4A272012081F880021A601A6842F096
:1009C00020021A60704740F203121A6070474FF419
:1009D00081721A60704700BFDC40000030B4054BE4
:1009E000054D064C002210211A602A602060196013
:1009F00030BC704714D0034004D0034000D0034003
:100A0000282838B52ED0002904464FDD5F4B1B78CF
:100A1000012505FA03F28A4202D8212837D938BDC8
:100A20000338C2B2012A3AD9202C4AD0192C48D016
:100A3000574A126802FB011222FA03F31D2800F242
:100A40009B80DFE800F0928B847D9999766F99996D
:100A50009999999999999968615A53994C99999941
:100A600099999945494B1B780B2B08D90C2B1CBF26
:100A70000C3B19410846BDE8384001F0D7B9C3F135
:100A80000C0399400846BDE8384001F0CFB929462B
:100A9000FFF746FF2946BDE83840FFF763BF3D4AF0
:100AA000126802FB011222FA03F3C7E72128B6D825
:100AB0000021FFF735FF20460121BDE83840FFF750
:100AC00051BF354A126802FB011222FA03F3B5E75F
:100AD0003249334A0B604FF45173136038BD3149CA
:100AE000314A0B604FF45173136038BD2F49304ABF
:100AF0000B6040F24443136038BD2E492E4A0B6010
:100B000040F24443136038BD2C492D4A0B6040F23B
:100B10004443136038BD2B492B4A0B6040F24443D9
:100B2000136038BD29492A4A0B6040F244431360E0
:100B300038BD2849284A0B6040F24443136038BD51
:100B40002649274A0B6040F24443136038BD2549CB
:100B5000254A0B6040F24443136038BD2349244AC0
:100B60000B604FF45173136038BD2249224A0B6069
:100B70004FF45173136038BD212C3FF650AF7F29DD
:100B8000D4BF00210121204693E700BF3087FF1F1B
:100B9000088003400890034008800B4010800B4001
:100BA00048A0044018800B404CA00440188003402B
:100BB00008B004401080034004B00440408003406B
:100BC00018C004403880034014C00440288003400B
:100BD00010B00440208003400CB00440308003403B
:100BE00010C00440488003401CC0044018900340DB
:100BF000349004401090034030900440212801D8E4
:100C0000FFF78EBE704700BF212806D8044B53F86B
:100C1000303093F80002C0B270470020704700BF28
:100C2000DC400000212801D8FFF79CBE704700BFC0
:100C30002DE9F843054672B6214F224B224A1B6824
:100C40003C68126862B6520102D5322B88BF01346B
:100C5000A5B3C3F58C331D4EDFF86890DFF86880CC
:100C600003F23F134FF47A72A6FB031302FB04F462
:100C700004EB131472B6D9F800103A68D8F800E003
:100C800062B6C1F58C3303F23F13A6FB03031EF0DB
:100C9000806FC4EB13134FF47A7002D0322988BFEF
:100CA000013200FB0233B3F57A7F04D3013D05D056
:100CB00004F57A74DEE700F05BFFDBE7BDE8F8835C
:100CC000608CFF1F18E000E004ED00E0398EE3388F
:100CD000F8B52D4B2D49DFF8D0E0DFF8D0C02C4E11
:100CE0002C4D2D4C2D4A2E4F4FF4000018604FF024
:100CF000807018604FF0007018604FF080601860CE
:100D00004FF00060186000200860282348F6FF714B
:100D1000CCF80010CEF80030336013602B602360F5
:100D20003B60B3629362092245F8242CC4F8D80FC3
:100D300005F57F65C7F8D41F07F5FF2707F5FA67A4
:100D4000C6F8F83F2B6006F5FF26C4F8D42F05F54A
:100D5000FD2504F5FF24386006F2F4761148316071
:100D600005F5FF6504F5FD642B602360026000F06B
:100D7000EDFF1920FFF75CFF00F026FE40F2131094
:100D8000BDE8F840FFF754BF08E100E004800340ED
:100D900014800340248003402C8003401C800340C7
:100DA0003480034000800B400C80034008800340E7
:100DB00030B472B62B4A13781D0706D52A4B196A30
:100DC000002936D0996A002941D053781C0706D5EE
:100DD000254B196C00293ED0996C002939D09378A5
:100DE000190705D5204B196E002936D0996E89B1A7
:100DF000D3781B0707D51C4BD3F880207AB3D3F8E0
:100E0000882011213AB162B6184B00221A7030BC0A
:100E100000F056BE0D21154C154D227843F8315087
:100E200003EBC1030830013A5860227062B630BC4F
:100E3000704704220D4C0F4D217843F8325003EBDC
:100E4000C20308304A1E5860227062B6EFE70521DF
:100E5000E1E70921DFE70822ECE70C22EAE71022AC
:100E6000E8E700BFEC4100000080FF1F398DFF1F45
:100E7000C800400088004000431E032B1DD81B4AB9
:100E8000400140F0100030B4104472B6184CE25CDF
:100E9000032A1BD8DFE802F00212151703220D887F
:100EA000E25410F0080F14BFC823882343EA054317
:100EB00008310360416062B630BC704708300222DE
:100EC000EDE70522EBE708300422E8E7094A52F88B
:100ED000230038B1084A52F82300416042F8231039
:100EE00062B6E9E742F82310034AF7E70080FF1FE4
:100EF000488DFF1F108DFF1F208DFF1F2DE9F04F24
:100F0000DFF818B3DFF818A387B044E0AE4F4FEA1C
:100F1000930807EBC809013ED9F8042003F0080341
:100F2000F6B2A2F1080003F0FF04002B40F00481A8
:100F300057F838301B0C99B222F8081C002B00F02F
:100F4000F280A24B22F8064C42F8044C53F82620BB
:100F5000002A00F06E819E4D55F8263058609D4C59
:100F600045F8260034F81630194424F8161000F01D
:100F700087FD002800F05681974A984B19F0080F1A
:100F800000F1080018BF1346C9F8040047F83830CC
:100F900008238BF800309BF80040E4B261071BD5B2
:100FA0008F4B1B78ABB18F490A7802F0FF032AB14F
:100FB000013BDBB20B70002B00F0EF848A490A780A
:100FC00002F0FF032AB1013BDBB20B70002B00F0F3
:100FD000F78004238BF8003004F0080303F0FF02CD
:100FE000002B00F0D6809AF80030DBB21E098DD1BC
:100FF0009C08DFF8D49159F8342009EBC401C2F3FE
:101000008302013A49680C2A7ED8DFE802F0818128
:101010007D7D7D7D7D7D477D7D7D07000868734DED
:101020004A68734F734E286081B240F281606A4B08
:101030006A604FF0010E0022814249F834303A6074
:10104000C9F81020C9F8182086F800E05E4C00F2BC
:10105000F480B1F5D06F80F07883B1F5817F00F036
:10106000628300F28782802900F0EC82822940F0BE
:101070001E83A98801F07F01042900F218835E48CD
:101080005E4C89000844227062700278930740F138
:10109000798384F800E04FF0020ED8E2544F3A68AA
:1010A00042B3574B534E5749188834780D7840282F
:1010B000864645F0020828BF4FF0400E002C84F011
:1010C00001043470CEEB00000CBF8824C82409EB67
:1010D000C80680B285F0010544EA0E4472601880AB
:1010E00049F8384072440D7018B9BEF1400F18BF6E
:1010F00000223A603D4B1A88B2F5A06F04D100215E
:101100009A785970404B1A70404A012313703FE798
:10111000364A158842F22100854200F0FF812E4AAE
:1011200049F83420F0E72C4A2C4B19F0080F18BF6F
:10113000134647F838302BE700F0C2FC344A3549F3
:1011400052F82630002B00F0B68158688C5D42F8CA
:10115000260003F10802C9F80420032C05D8DFE8B3
:1011600004F0120F150204228A551A8819F0080F8C
:101170000CBF8823C82343EA024347F8383007E707
:1011800002228A55F1E703228A55EEE705228A55A5
:10119000EBE7E00700F11A82210600F14982A2077D
:1011A00006D51D4A1D4913780220DBB21370087062
:1011B000E30602D5194B10221A7007B0BDE8F08F74
:1011C00000F0B2FC05E700BF0080FF1FBC8CFF1FD2
:1011D000688CFF1F808DFF1FC80040008800400002
:1011E000448DFF1FCD8CFF1F4C8DFF1F308DFF1FC7
:1011F000648CFF1FCC8CFF1FC02007403C8DFF1F5D
:10120000788CFF1F388DFF1F9820074094200740DF
:10121000108DFF1F488DFF1F88200740802007404A
:1012200090200740AB4A47F8380013780133137019
:10123000AEE643F82600A84D91E642F22100814235
:1012400000F0358100F2AF81B1F5086F00F01B822C
:10125000B1F5106F40F02B82226AA049A87808707F
:10126000120600F14583D9F828209D49130600F1A4
:101270003A83D9F830209A49150600F12F83D9F81E
:1012800038209749140600F12483D9F84020944966
:10129000100600F11983D9F848209149120600F18F
:1012A0000E83D9F850208E49130600F10383D9F834
:1012B00058208B49150600F1F882D9F8602088493A
:1012C000140600F12983D9F868208549100600F139
:1012D0001E83D9F870208249120600F11383D9F8D1
:1012E00078207F49130600F10883D9F880207C49D3
:1012F000150600F11C83D9F888207949140600F1FD
:101300001083D9F890207649100600F1C882D9F8E8
:1013100098207349120600F1BC827248724A7349E0
:10132000019073486C4D734C049700230596029509
:10133000804617460E461D460394386828B1446817
:1013400000F0BEFB2046002CF9D100233B60029B3D
:1013500030681A46002342F8253028B1446800F06E
:10136000AFFB2046002CF9D100223260019A98F898
:1013700000301146002241F8042B039A0191023BF0
:101380004FF0000122F81510032B09D8DFE813F005
:101390004B0104004B0104004FF0010388F80030BA
:1013A0000135042D07F1040706F1040608F10108D0
:1013B000C3D1514C514B2278464D049F059E0021CC
:1013C00029701A70130700F14F8262784C49DFF8D8
:1013D00010810A7010074FF00001C9F83010C9F8E9
:1013E000381000F12B824749A2780A700021C9F811
:1013F0005010C9F858101107DFF8E48000F1DC81C3
:10140000E2784149364C0A7000211207C9F8701081
:10141000C9F8781000F1B98133780193002183F085
:101420000102C9F89010C9F8981000200290804677
:101430008446044635490D7845F0020E09EBCE038B
:101440000393019B002B039B5C600CBF8824C82482
:1014500044EA080385F0010449F83E3032700C700C
:10146000DFF87CE02A4BDFF8A480002840F02681DA
:10147000BCF1400F1BD144F0020C09EBCC03029CE1
:10148000DFF85CE05C60002A40F02E81020442F04C
:1014900088029DF804304EF83C20044433700D70EF
:1014A0002346402803D100201A4A3B6010801A4A84
:1014B0000123137028E68B5D032B00F22D8101A21E
:1014C00052F823F0910F0000910F00001B1600004E
:1014D00021160000398DFF1F688CFF1F448DFF1FF0
:1014E0000080FF1F208DFF1FBC8CFF1F108DFF1F72
:1014F000488DFF1F808DFF1FEC410000C420074076
:10150000C8200740CC200740D0200740388DFF1F5F
:10151000CC8CFF1F788CFF1F94200740928892B9D3
:10152000B14A0D784878157050708D78C8789570EC
:10153000D07010680D79157186284D7989795571AB
:10154000917100F0A580A949A94E0A78307882F0FF
:101550000105002842F002020D700CBF8821C8214D
:1015600049F8321009EBC20280F00100002130700E
:101570005160D4E540F20232914240F08D80A9885A
:1015800001F07F01042900F292806A88002A40F06D
:101590008E809848CDF804E089000844017841F035
:1015A0000201017041E742F2212081427BD1A988EA
:1015B000002940F0E480904B904A9148AC781D6837
:1015C0001560CDF804E00A4604702EE78D4B8E4876
:1015D00086491A614FF0020E80F800E0854F0A70CC
:1015E0008A49196099608A4E8A4D8B4C9A610D2107
:1015F0003970FF213170DFF840E229702270874D89
:10160000874A8EF800109F27012406F8047C5D604D
:101610000470DA6007B0BDE8F08F00238B55B7E4A3
:1016200001238B55B4E44FF0000388F80030B7E68F
:101630007049784B80220D2008701A70A2077FF540
:10164000B7ADAEE5774C4FF0020E22706270EA88BB
:10165000724580F0A38165490D78402A944645F093
:10166000020E28BF4FF0400C04EB0C0309EBCE0038
:101670000293012344604FEA0C48CCEB0200019333
:101680000022C824E4E6684A664C12782270DEE73D
:10169000664A0F21117056E7B1F5A06F07D10123FB
:1016A00000220193C1E642F221329142F7D0514A21
:1016B0000F231370544A0123137025E540287FF649
:1016C000DAAE44F002040EEBC401029E4E60BAB1E1
:1016D0009DF80410564A19703346403888F8005077
:1016E00040334EF83420DFE69DF8043033700204B6
:1016F000029B0D7042F0C80203444EF83C20D0E635
:101700009DF804101970029B404A88F80050403838
:1017100040334EF83420C7E619F0080F0CBF0223FF
:1017200003238B5534E4A98801F07F010429BED836
:101730006A88002ABBD12F48CDF804E0890008440C
:10174000017821F0020101706FE63A4A5468002CDA
:10175000ADD06888B5F804E003E00C325468002C82
:10176000A5D013888342F8D153887345F5D1000A78
:1017700003280CBF94F800E0B2F808E067E7CDF862
:1017800004E052E64FF0020E61E700F079F900281C
:1017900000F0F18008301D4AC4F88400C4F88020AD
:1017A00000F06EF9002800F0E0800830204AC9F807
:1017B0008C00C9F888202FE600F062F9002800F0BC
:1017C000E6800830114AC8F86400C8F8602000F0CC
:1017D00057F9002800F0D5800830154AC9F86C0088
:1017E000C9F868200CE600BF888DFF1F388DFF1FE9
:1017F000CC8CFF1FC0200740608CFF1F908DFF1F07
:10180000588DFF1F0080FF1F942007408800400074
:101810008820074080200740982007407C8CFF1FCD
:10182000D08CFF1F3C8DFF1F448DFF1FCD8CFF1FF1
:10183000C8004000F04100008C20074000F020F973
:10184000002800F08C8008305D4AC8F84400C8F8D1
:10185000402000F015F900287BD00830594AC9F81B
:101860004C00C9F84820BEE500F00AF900286AD00B
:101870000830534AC9F82400C9F8202000F000F9C4
:1018800000285AD008304F4AC9F82C00C9F828203F
:101890009BE5D1F89C00083800F012F93DE5D1F83D
:1018A0009400083800F00CF931E5C86D083800F0F4
:1018B00007F902E5486D083800F002F9F7E4C86C52
:1018C000083800F0FDF8ECE4486C083800F0F8F84F
:1018D000E1E4C86B083800F0F3F8D6E4486B083848
:1018E00000F0EEF8CBE4C86A083800F0E9F8C0E48C
:1018F000606A083800F0E4F8B5E4C86F083800F012
:10190000DFF8F2E4486F083800F0DAF8E7E4C86E70
:10191000083800F0D5F8DCE4486E083800F0D0F85C
:10192000D1E4D1F88C00083800F0CAF8E9E4D1F825
:101930008400083800F0C4F8DDE42A78C9F82800EB
:1019400001322A7041E52A78C9F8200001322A7054
:1019500094E72A78C9F8480001322A7043E52A78CA
:10196000C8F8400001322A7073E72A78C9F8880065
:1019700001322A7050E52A78C4F8800001322A70BA
:101980000EE72A78C9F8680001322A7038E52A780B
:10199000C8F8600001322A7019E700BEBEF1400F9E
:1019A000F44628BF4FF0400C04EB0C0302930123D4
:1019B000CCEB0E004FEA0C48002201933AE500BF41
:1019C00088004000C80040002DE9F843204C00F09A
:1019D0004DFA002204F1A00023461A605A60083331
:1019E00083424FF00001F8D11A4A1B4F13681B4D78
:1019F0001B481C4EDFF87880DFF878C0DFF878905D
:101A0000DFF878E043F480231360C4F307233B70CE
:101A1000C4F307432B70240EFF2302F52832047011
:101A2000114D88F8003011488CF80030D4323370F2
:101A3000012389F8003070268EF800104FF40074EE
:101A4000102107F8183C2E7004601170BDE8F8836F
:101A50000080FF1F348004409C200740B0200740D6
:101A6000B42007401020074049E400E008E100E00E
:101A7000802007408820074094200740002107402D
:101A800072B60D480268B2FA82F30B2B10DC4FF0ED
:101A90000041D94022EA0102026062B6074803EB26
:101AA000C303DB00C2180021C150104651607047CB
:101AB00062B60020704700BF3487FF1FBC83FF1F42
:101AC0000D4B0E4AC31AA2FB03231B090B2B0CD888
:101AD0000B4A127852B972B60A484FF000410268B8
:101AE00021FA03F31A43026062B67047064A12787D
:101AF000002AF0D0FFF75CB9BC83FF1F398EE338B2
:101B0000398DFF1F3487FF1F448DFF1F044B054A8B
:101B10001B6890881BB11A885B88D31A18447047D9
:101B2000548DFF1F808DFF1F38B50E4B1B7873B986
:101B30000D4C216861B103F0FF054B880B80042038
:101B4000FFF79AF9256038BD084B01221A7038BD9D
:101B5000FFF796FF0028F7D00146BDE83840042083
:101B6000FFF78AB94D8DFF1F508DFF1F4C8DFF1F52
:101B70002DE9F843314E337893B1314F3A787AB941
:101B80000122D9073A7036D49A0719D400225B078C
:101B90003A7005D52B4B1A6812B1EFF305820AB1E2
:101BA000BDE8F883EFF3108172B6186818B1264CBF
:101BB0002278002A2ED00029F2D162B6BDE8F8833F
:101BC000DFF8908098F80020002ADFD0DFF88890B6
:101BD000002405E0013498F80030E4B2A34212D9A1
:101BE00059F824502B6828461B6998470028F1D0E3
:101BF0002B699847EEE7FFF789FFC8B9134B1B78AD
:101C00001BB93378C0E73378C0E7337803F0FE03BD
:101C10003370B9E745691D60012323705DB1AA6186
:101C200001B962B600254577836898472570B7E704
:101C300000F01AF9E2E7064B1D60F1E73887FF1F55
:101C4000598DFF1F688DFF1F6C8DFF1F4E87FF1F73
:101C5000648DFF1F7C8DFF1F708DFF1F70B5EFF32C
:101C6000108272B60C4C206880B10C4E002543697E
:101C7000236073B19D6102B962B645778368984766
:101C8000EFF3108272B620680028F0D102B962B674
:101C900070BD3360EFE700BF5C8DFF1F608DFF1FDD
:101CA000FFF7DCBF024A136801331360704700BFBF
:101CB000608CFF1F704700BF0168A9B10B4BF0B4E7
:101CC0000B441B110A4E0B4F0B4D46F8237003F1CA
:101CD000440202F01F0401235211A340002445F8DE
:101CE00022308C600460F0BC704700BF008FFCBFE6
:101CF0003C87FF1FB51C000080E100E0024A034B57
:101D0000012111601B6818470C7103403C87FF1FBD
:101D1000024A034B012111605B6818471C710340A4
:101D20003C87FF1F024A034B012111609B68184743
:101D30002C7103403C87FF1F024A034B01211160B5
:101D4000DB6818473C7103403C87FF1F30B42948CB
:101D5000294A2A4B2A4D6024E121047011701B7816
:101D6000284C082B30D00A2B2748284937D00C2B79
:101D70000CBF15223D2212232A60236002600B60F3
:101D8000234B24491B78244ABBB101230B60136009
:101D9000224B23491B78234A012B26D9042B0FD928
:101DA000082B1ED9102B94BF862387230B6013604A
:101DB0001D4B01221A7030BC70470B601360E7E7BF
:101DC00084230B601360F3E700F58E200F49083081
:101DD000012213232A60236002600B60D0E71922DE
:101DE000F7E785230B601360E2E780230B60136045
:101DF000DEE700BF00400740014007404C87FF1F5F
:101E000008B003400CB0034008B00B400CB00B40CE
:101E10007E8DFF1F20B0034020B00B404D87FF1F79
:101E200024B0034024B00B407D8DFF1F0A4A0B49AC
:101E3000136843F4805313600B7843B9084BC022F6
:101E40001A70084B80F30C0000B218807047044BE6
:101E500080221A70F5E700BF2C8004407E8DFF1FA2
:101E600021C00C4000C00C40704700BF70B584B06A
:101E700072B6194B194D1A48702241260F24802141
:101E80001A702E701A460470197013781B06FCD550
:101E9000144B186862B6144B144C984298BF00EB70
:101EA000800001A998BF40000A2200F021F801A992
:101EB0002046002311F8012B01333AB10A2B20F8F8
:101EC000022FF7D11623237004B070BD5B00DBB284
:101ED000237004B070BD00BF000002400700024044
:101EE00006000240080002407F969800DC87FF1F32
:101EF000F0B44D1E2E46002400E00134B0FBF2F396
:101F000002FB1300092800F130078ABF3730F8B20E
:101F1000C0B206F8010F1846002BEED10A19537013
:101F20004CB1107815F8016F28700133E01A834224
:101F300002F80169F5DB0846F0BC70470B46014624
:101F4000184602F027B800BF30B51F4A21F0004301
:101F5000934287B01BDD1D4A934205DD02460B46C6
:101F600001F044F907B030BD02AA00F031F800F0EA
:101F700003000128DDE904231AD002280FD0E0B1C4
:101F8000DDE9020100F048FA01F10041EAE700232F
:101F900000930022002300F05BFF07B030BD012456
:101FA000DDE90201009400F053FF01F10041D9E79F
:101FB000DDE9020100F030FAD4E70124DDE9020195
:101FC000009400F045FFCDE7FB21E93FFFFFEF7FE5
:101FD0002DE9F04F944E21F00047B74291B040F305
:101FE00082809246914A97420C4626DC002984A3BF
:101FF000D3E9002340F3A88101F0F8F88C4B9F420D
:1020000004460D4600F084807FA3D3E9002301F04D
:10201000EDF802460B46CAE900232046294601F0A6
:10202000E5F879A3D3E9002301F0E0F80125CAE936
:102030000201284611B0BDE8F08F7E4A974240F376
:1020400084807D4A974259DC3D15A5F21645A7EBE1
:10205000055319461F46064601F016FD01F014FA15
:102060008046894602460B4630463946CDE90A8904
:1020700001F0BCF80022714B01F06CFA89468046F1
:1020800001F002FD01F000FA02460B4606460F463B
:1020900040464946CDE90C6701F0A8F80022674B9D
:1020A00001F058FA00220023CDE90E0101F0BAFC3C
:1020B000002800F07581002330463946002201F0E7
:1020C000B1FC002814BF012302235D4A01920221C2
:1020D00000912A4651460AA800F0C2FA002CC0F22C
:1020E0005181054606E0C2E9000100250024C2E94D
:1020F00002450025284611B0BDE8F08F02460B4688
:1021000001F074F80025CAE90201CAE90001F1E70B
:102110003FA3D3E9002301F069F83FA3D3E90023EB
:102120000D46044601F062F802460B46CAE9002358
:102130002946204601F05AF837A3D3E9002301F0DD
:1021400055F80125CAE90201D4E700F037FF34A3AE
:10215000D3E900238046894601F0FCF90022394B7F
:1021600001F046F801F090FC054601F08DF924A33A
:10217000D3E90023CDE9040101F0ECF902460B4656
:102180004046494601F032F81FA3D3E900238046B8
:102190008946DDE9040101F0DDF91F2DCDE90201D9
:1021A00054DC294B6A1E53F822309F424ED002461F
:1021B0000B464046494601F019F802460B46CAE96B
:1021C000002383460E465A4633464046494601F0B0
:1021D0000DF8DDE9022301F009F8002C02460B4658
:1021E000CAE9022386DA5B4606F1004601F10041A6
:1021F0008AE84800CAF80C10CAF808006D4279E76E
:1022000000004054FB21F93F3163621A61B4D03DB4
:102210000000601A61B4D03D7370032E8A19A33B8D
:1022200083C8C96D305FE43FFB21E93F7BD90240A1
:10223000FB21F93FFB213941FFFFEF7F0000704197
:10224000C44200000000E03F44420000DDE90223F8
:102250004046494600F0CAFF3A15C1F30A53D31A63
:10226000102B83460E460992CAE90001ABDD5EA33E
:10227000D3E90023DDE9040101F06CF906460F46BD
:1022800002460B464046494600F0B0FFCDE9060144
:1022900002460B464046494600F0A8FF32463B4600
:1022A00000F0A4FF52A3D3E9002306460F46DDE960
:1022B000040101F04FF932463B4600F097FFDDE99B
:1022C0000689CDE9020102460B464046494600F028
:1022D0008DFF0B46C1F30A570E460999CF1B0246E4
:1022E000312F8346CAE900237ADD43A3D3E90023D3
:1022F000DDE9040101F02EF906460F4602460B46C1
:1023000040464946CDE9068900F070FF02460B467B
:1023100080468946DDE9060100F068FF32463B460B
:1023200000F064FF36A3D3E9002306460F46DDE93B
:10233000040101F00FF932463B4600F057FF024618
:102340000B46CDE9022334E700F052FF304B9F42A9
:1023500004460D4626D02CA3D3E9002300F048FF05
:1023600002460B46CAE900232946204600F03EFFFC
:1023700025A3D3E9002300F03BFF4FF0FF35CAE966
:102380000201B7E6DAF80420DAF80C3002F1004274
:1023900003F100434542CAF80420CAF80C30A9E60C
:1023A000032392E610A3D3E9002300F021FF10A33A
:1023B000D3E900230D46044600F01AFF02460B46FF
:1023C000CAE900232946204600F010FF08A3D3E9FC
:1023D000002300F00DFF4FF0FF35CAE9020189E646
:1023E000DDE90689EFE600BF0000601A61B4D03D68
:1023F0007370032E8A19A33B0000002E8A19A33B99
:10240000C14920259A837B393163621A61B4D03D7A
:10241000FB21F93FFFFFFFFF2DE9F04F21F00046C0
:10242000B6F1795F85B00C4692469B4605466BDA5D
:1024300001F02AFB002800F0E8802A4623462846BF
:10244000214601F087F874A3D3E90023804689462A
:1024500001F080F872A3D3E9002300F0C9FE4246E0
:102460004B4601F077F870A3D3E9002300F0BEFEDD
:1024700042464B4601F06EF86DA3D3E9002300F00D
:10248000B7FE42464B4601F065F86BA3D3E9002343
:1024900000F0ACFE42464B4601F05CF868A3D3E97D
:1024A000002300F0A5FE42464B4601F053F8CDE96B
:1024B00000010022644B4046494601F04BF8DDE93B
:1024C000002306460F464046494601F043F852466F
:1024D000804689465B462846214601F03BF8024685
:1024E0000B464046494600F081FE02460B46304608
:1024F000394600F07BFE02460B460020534900F0AF
:1025000075FE05B0BDE8F08F02460B4601F022F8DB
:1025100041A3D3E900238046894601F01BF840A37C
:10252000D3E9002300F064FE42464B4601F012F866
:102530003DA3D3E9002300F059FE42464B4601F08B
:1025400009F83BA3D3E9002300F052FE42464B4674
:1025500001F000F838A3D3E9002300F047FE42461B
:102560004B4600F0F7FF36A3D3E9002300F040FE0E
:102570004B46424600F0EEFF354B9E42CDE900014E
:1025800097DD344B9E424FF0000238DCA6F5001375
:1025900000202E4916461F4600F028FECDE9020114
:1025A0000022294B4046494600F0D4FF32463B46C4
:1025B00000F01CFEDDE9002306460F464046494672
:1025C00000F0C8FF5246804689465B4628462146B1
:1025D00000F0C0FF02460B464046494600F006FEAA
:1025E00002460B463046394600F000FE02460B46D6
:1025F000DDE9020100F0FAFD05B0BDE8F08F164BF1
:10260000164FCDE902230026CAE71049002005B085
:10261000BDE8F08FAFF30080D43888BEE9FAA8BDDA
:10262000C4B1B4BD9EEE213EAD529C804F7E923E21
:102630009015CB19A001FA3E7751C1166CC1563FD7
:102640004C5555555555A53F0000E03F0000F03F63
:102650003233D33F0000E93F0000E73F0000D23FA4
:102660002DE9F04FADF51D7D784CA69E784D54F8C0
:10267000264009942646D41E85FB0475E417C4EB56
:10268000A50424EAE4741D460B93631CA3EB8303A7
:10269000013D02EBC30308932B460D940295651B85
:1026A000F41804900A9116D42C44013422AEA79F4A
:1026B00008E057F8250000F0E7FE0135A542E6E9FD
:1026C000020108D0002DF4DA013500200021A542D6
:1026D000E6E90201F6D1099B002B2FDB099BDDF80F
:1026E000089074AA02EBC30B0DF5E47A029B002B51
:1026F000C0F295810B9BC3EB090824AB03EBC80820
:10270000049BA3F1080524AB03EBC90400260027B2
:10271000F5E9022374E8020100F01CFF02460B46B3
:102720003046394600F064FD444506460F46EFD179
:10273000EAE90267DA4509F10109D7D1099D05F1F6
:102740008043023B9B001A1D10A90A440B440F92C0
:102750000E939CAB03EBC503002D53E928672BDDDB
:102760009CAB03EBC504A83C0DF13C0A0DF5E47BE2
:102770000022384B3046394600F0ECFE01F084F977
:1027800000F082FE0022344B8046894600F0E2FED3
:1027900002460B463046394600F028FD01F074F938
:1027A00074E802234AF8040F4946404600F020FD31
:1027B0005C4506460F46DBD1089C3046394622462A
:1027C00000F08AFC00224FF07F5306460F4600F0CF
:1027D000C1FE00F0F9FB0022204B00F0BBFE0246D8
:1027E0000B463046394600F001FD0F46064601F023
:1027F0004BF9814600F048FE02460B46304639460A
:1028000000F0F4FC002C06460F4640F3EF80691EF2
:1028100010AAC4F1180352F8212042FA03F000FA7A
:1028200003F3D31A10AAC4F1170842F821308144E7
:1028300043FA08F8B8F1000F3DDD002D09F1010958
:1028400040F3D482002214460FA911E0CC430000CB
:10285000ABAAAA2A0000703E000070410000204090
:10286000C3F180700BB108600124013295420DDD87
:1028700051F8043F002CF3D0C3F1FF13013203F5EC
:102880007F4395420B604FF00104F1DC089B002B65
:102890000DDD012B00F0B280022B08D16A1E10ABB7
:1028A00010A953F82230C3F3150341F82230B8F1D0
:1028B000020F00F08280002200233046394601F0EA
:1028C000B1F8002800F05C82099B05F1FF3B5B45F5
:1028D00010DC05F1804310AA013B0F9802EB830343
:1028E000002253F80419834242EA0102F9D1002A76
:1028F00040F0B280099B10AA013B52F82330002B14
:1029000040F072820E9A012352F804190133002913
:10291000FAD0E9186A1C8A420C9149DC0D990B988F
:102920005118DB0001F180410593A79B0544013953
:10293000E80003EB810A24ABD20003EB000B74AB7D
:1029400013440193A2F10803069007934FF0000986
:102950005AF8040F00F098FD029B002BEBE80201EF
:1029600028DB069B03EB0904079B09EB030824AB58
:102970001C449844049B0026A3F108050027F5E9B0
:10298000022374E8020100F0E5FD02460B463046E2
:10299000394600F02DFC444506460F46EFD1019B19
:1029A000E3E802670193059B09F108099945CFD136
:1029B0000C9DCEE600260027F1E732463B4600207C
:1029C000AF4900F013FC06460F46002C3FF473AFEE
:1029D000089AAB49002000F07FFB02460B463046C8
:1029E000394600F003FC06460F4664E710D16B1E23
:1029F00010AA52F823304FEAE3581BE76A1E10ABC7
:102A000010A953F82230C3F3160341F822304EE7E1
:102A100000229C4B01F024F858B980464BE7002671
:102A20000027EAE90267DA4509F101097FF45EAEA1
:102A300084E6002D09F10109C8BF4FF002083FF7F5
:102A400001AF32463B4600208D4900F0CFFB4FF0EE
:102A5000020806460F462EE710AB089A53F82B30B3
:102A6000CDF81490183ACDF8048008926BB90BF1A8
:102A70008043013B10A901EB830353F804190BF1C8
:102A8000FF3B183A0029F8D00892089A7C490020A8
:102A900000F022FBBBF1000F04460D46C0F2B681E8
:102AA0004FEACB030DF5E87810AA02EB8B0608EB92
:102AB00003090493043609F1080756F8040D00F0E1
:102AC000E3FC22462B4600F045FD002267E90201A7
:102AD0006D4B2046294600F03DFDB84504460D46A5
:102AE000EBD10DF5987A4B46CDF808A0DDF824A07F
:102AF000CDF818B04FF000099B46BAF1000FC0F2B4
:102B00002881DFF888815D465BA3D3E90023002696
:102B10000027002403E0A14510DBF8E90223F5E8D3
:102B2000020100F017FD02460B463046394600F020
:102B30005FFB0134A24506460F46ECDA029B03EB2D
:102B4000C903ABF1080BC3E9006772AB5B4509F140
:102B50000109D2D1A69BDDF818B0DDF808A0032B3F
:102B600000F28380DFE813F0D300940094000400A7
:102B7000BBF1000F40F35481049BCDF808B00AEB81
:102B80000308D8E90067D34658E9029A32463B4623
:102B90004846514600F02CFB04460D4602460B46C3
:102BA0004846514600F022FB32463B4600F020FBEF
:102BB000C8E9000168E90245C34526462F46E3D12E
:102BC000DA46DDF808B0BBF1010F40F32981049B20
:102BD0005344D3E90067984699460DF59C7B59E923
:102BE00002343046CDE902341A463946234600F015
:102BF000FFFA04460D4602460B46DDE9020100F0ED
:102C0000F5FA32463B4600F0F3FAC9E9000169E9FA
:102C10000245CB4526462F46E1D1002308F108089E
:102C20001D4650AC1846294678E9022300F0E0FA28
:102C3000444503460D46F5D1019A002A00F0D8809C
:102C40000A9FDAF80440DAF80C20DAF80010DAF813
:102C500008003B6105F1004504F1004402F1004326
:102C60007D617C60FB603960B860059B03F0070004
:102C70000DF51D7DBDE8F08F00000040FB21F93F00
:102C80000000F03F0000E03F0000703EE043000025
:102C9000049C00260834544433463046194674E9EF
:102CA000022300F0A5FA544506460B46F5D1019AD9
:102CB00030461946002A4FD00A9803F100443246A4
:102CC00044600660DAE9000100F090FABBF1000F01
:102CD00002460B460DDD012410461946FAE902238F
:102CE00000F086FA0134A34502460B46F4DA019956
:102CF00009B103F1004319460A9B1046C3E90201DA
:102D0000059B03F007000DF51D7DBDE8F08F049BCA
:102D1000002208339A441346104619467AE90223E2
:102D200000F066FA0BF1FF3BBBF1FF3F02460B469A
:102D3000F2D1019909B103F1004319460A9B1046EB
:102D4000C3E90001059B03F007000DF51D7DBDE8FB
:102D5000F08F00260027F1E60A9B3246C3E9000106
:102D60000B46DAE9000100F041FABBF1000F024620
:102D70000B46B0DC19460A9B1046C3E90201BFE7C7
:102D8000089BCDF814905A4230463946CDF804805D
:102D900000F0A2F900222C4B06460F4600F060FE20
:102DA000002840D00022294B3046394600F0D2FBA3
:102DB00000F06AFE044600F067FB0022224B00F0A0
:102DC000C9FB0B4602463946304600F00FFA00F0C8
:102DD0005BFE089B183305F1010B089310AB43F819
:102DE000250043F82B4050E6012392E500244DE5F1
:102DF00018462946DAE90023DAE902450A9FC7E9BD
:102E00000401C7E90023C7E902452EE7A69B032B6F
:102E10003FF62BAFDFE803F0151010020DF5987A9E
:102E200000231D4608E73046394600F02DFE10AB62
:102E3000AB4643F8250028E6002633460DF5987A80
:102E400035E70022134674E7000070410000703E31
:102E50002DE9F04F21F00046B6F1795F85B00C46C0
:102E600090469946054604DA00F00EFE002800F070
:102E700085802A4623462846214600F06BFB0646FD
:102E80000F4602460B462846214600F063FB3EA350
:102E9000D3E9002382468B463046394600F05AFB80
:102EA0003BA3D3E9002300F0A1F932463B4600F0F2
:102EB00051FB39A3D3E9002300F09AF932463B468F
:102EC00000F048FB36A3D3E9002300F08FF9324627
:102ED0003B4600F03FFB34A3D3E9002300F088F920
:102EE0000E9BCDE900019BB30022334B404649467F
:102EF00000F030FBDDE90023CDE9020150465946E0
:102F000000F028FB02460B46DDE9020100F06EF9F5
:102F100032463B4600F01EFB42464B4600F066F947
:102F200023A3D3E9002306460F465046594600F036
:102F300011FB02460B463046394600F059F902466D
:102F40000B462846214600F051F905B0BDE8F08F48
:102F500002460B463046394600F0FCFA14A3D3E98A
:102F6000002300F043F952465B4600F0F3FA2A468C
:102F7000234600F03DF905B0BDE8F08F2846214614
:102F800005B0BDE8F08F00BF7CD5CF5A3AD9E53DFA
:102F9000EB9C2B8AE6E55A3E7DFEB157E31DC73E0A
:102FA000D561C119A0012A3FA6F810111111813F66
:102FB000495555555555C53F0000E03F21F00041AA
:102FC000704700BFFFFFFFFFC1F30A522DE9F8432E
:102FD000A2F2FF36132E0B460D46044688460746DE
:102FE0001CDC002E3FDB3A4A42FA06F901EA0902EC
:102FF0000243864617D034A3D3E9002300F0F8F843
:103000000022002300F036FD20B1002D40DB28EA2D
:103010000905002738462946BDE8F883332E06DD2A
:10302000B6F5806F2FD020461946BDE8F883A2F28E
:1030300013424FF0FF3929FA02F910EA090FF2D0D2
:1030400021A3D3E9002300F0D3F80022002300F0ED
:1030500011FD0028DED0002D20DB454627EA0907B8
:1030600038462946D8E718A3D3E9002300F0C0F872
:103070000022002300F0FEFC0028CBD0002D18DB3E
:1030800000273D46C6E702460B4600F0B1F8CCE704
:103090004FF4801343FA06F6B044B8E7142E10D06C
:1030A0000123C6F1340603FA06F6371928BF9844FF
:1030B000D3E725F00042074B224318BF1D460027E7
:1030C000A8E705F10108C8E79C7500883CE4377E55
:1030D000FFFF0F000000F0BFF8B5C1F30A56044629
:1030E0000D460B46174606BB21F00043034325D08F
:1030F0000022354B00F02EFA344A974204460D4622
:103100000B462ADBC1F30A56363E3E4440F2FE72BD
:10311000964228DC002E12DD23F0FF4323F4E00367
:1031200043EA065520462946F8BD40F2FF72964212
:10313000EBD102460B4600F05BF8F8BDF8BD16F186
:10314000350F1DDA4CF250339F4222462B4625DCC8
:1031500019A1D1E9000100F03DF817A3D3E900233C
:1031600000F0F8F9F8BD22462B4615A1D1E900017F
:1031700000F030F812A3D3E9002300F0EBF9F8BD1A
:1031800023F0FF4323F4E003363643EA0655204696
:10319000294600220E4B00F0DDF9F8BD08A1D1E967
:1031A000000100F017F806A3D3E9002300F0D2F9DC
:1031B000F8BD00BFAFF3008059F3F8C21F6EA50140
:1031C0009C7500883CE4377E00005043B03CFFFF14
:1031D0000000903C03F0004321F0004242EA03016A
:1031E000704700BF81F0004102E000BF83F0004360
:1031F00030B54FEA41044FEA430594EA050F08BF92
:1032000090EA020F1FBF54EA000C55EA020C7FEA55
:10321000645C7FEA655C00F0E2804FEA5454D4EBD2
:103220005555B8BF6D420CDD2C4480EA020281EA9C
:10323000030382EA000083EA010180EA020281EAD4
:103240000303362D88BF30BD11F0004F4FEA013126
:103250004FF4801C4CEA113102D0404261EB410135
:1032600013F0004F4FEA03334CEA133302D05242BB
:1032700063EB430394EA050F00F0A780A4F1010477
:10328000D5F1200E0DDB02FA0EFC22FA05F28018B1
:1032900041F1000103FA0EF2801843FA05F3594197
:1032A0000EE0A5F120050EF1200E012A03FA0EFC16
:1032B00028BF4CF0020C43FA05F3C01851EBE37140
:1032C00001F0004507D54FF0000EDCF1000C7EEB5D
:1032D00000006EEB0101B1F5801F1BD3B1F5001F9B
:1032E0000CD349085FEA30004FEA3C0C04F10104BA
:1032F0004FEA445212F5800F80F09A80BCF1004FE3
:1033000008BF5FEA500C50F1000041EB045141EA64
:10331000050130BD5FEA4C0C404141EB010111F465
:10332000801FA4F10104E9D191F0000F04BF014610
:103330000020B1FA81F308BF2033A3F10B03B3F1EE
:1033400020020CDA0C3208DD02F1140CC2F10C027E
:1033500001FA0CF021FA02F10CE002F11402D8BFDC
:10336000C2F1200C01FA02F120FA0CFCDCBF41EAA8
:103370000C019040E41AA2BF01EB0451294330BD77
:103380006FEA04041F3C1CDA0C340EDC04F1140454
:10339000C4F1200220FA04F001FA02F340EA03002B
:1033A00021FA04F345EA030130BDC4F10C04C4F171
:1033B000200220FA02F001FA04F340EA0300294651
:1033C00030BD21FA04F0294630BD94F0000F83F49B
:1033D000801306BF81F480110134013D4EE77FEA7E
:1033E000645C18BF7FEA655C29D094EA050F08BFCA
:1033F00090EA020F05D054EA000C04BF19461046AB
:1034000030BD91EA030F1EBF0021002030BD5FEAEE
:10341000545C05D14000494128BF41F0004130BD16
:1034200014F580043CBF01F5801130BD01F000456A
:1034300045F0FE4141F470014FF0000030BD7FEADD
:10344000645C1ABF194610467FEA655C1CBF0B46D8
:10345000024650EA013406BF52EA033591EA030FEF
:1034600041F4002130BD00BF90F0000F04BF0021E7
:10347000704730B54FF4806404F132044FF000051A
:103480004FF0000150E700BF90F0000F04BF002193
:10349000704730B54FF4806404F1320410F00045F9
:1034A00048BF40424FF000013EE700BF42004FEAF4
:1034B000E2014FEA31014FEA02701FBF12F07F4371
:1034C00093F07F4F81F06051704792F0000F14BF6E
:1034D00093F07F4F704730B54FF4607401F00045B2
:1034E00021F0004120E700BF50EA010208BF704709
:1034F00030B54FF000050AE050EA010208BF7047FE
:1035000030B511F0004502D5404261EB41014FF466
:10351000806404F132045FEA915C3FF4DCAE4FF06A
:1035200003025FEADC0C18BF03325FEADC0C18BF51
:10353000033202EBDC02C2F1200300FA03FC20FAA2
:1035400002F001FA03FE40EA0E0021FA02F11444EF
:10355000C1E600BF70B54FF0FF0C4CF4E06C1CEA04
:1035600011541DBF1CEA135594EA0C0F95EA0C0F79
:1035700000F0DEF82C4481EA030621EA4C5123EAEC
:103580004C5350EA013518BF52EA033541F480111B
:1035900043F4801338D0A0FB02CE4FF00005E1FBCE
:1035A00002E506F00042E0FB03E54FF00006E1FB18
:1035B00003569CF0000F18BF4EF0010EA4F1FF045B
:1035C000B6F5007F64F5407404D25FEA4E0E6D419B
:1035D00046EB060642EAC62141EA55514FEAC520AC
:1035E00040EA5E504FEACE2EB4F1FD0C88BFBCF528
:1035F000E06F1ED8BEF1004F08BF5FEA500E50F1D9
:10360000000041EB045170BD06F0004646EA01019E
:1036100040EA020081EA0301B4EB5C04C2BFD4EBD0
:103620000C0541EA045170BD41F480114FF0000EC9
:10363000013C00F3AB8014F1360FDEBF002001F037
:10364000004170BDC4F10004203C35DA0C341BDCB1
:1036500004F11404C4F1200500FA05F320FA04F083
:1036600001FA05F240EA020001F0004221F00041B7
:1036700010EBD37021FA04F642EB06015EEA430E2A
:1036800008BF20EAD37070BDC4F10C04C4F120055A
:1036900000FA04F320FA05F001FA04F240EA02000D
:1036A00001F0004110EBD37041F100015EEA430EDE
:1036B00008BF20EAD37070BDC4F1200500FA05F2FE
:1036C0004EEA020E20FA04F301FA05F243EA02037D
:1036D00021FA04F001F0004121FA04F220EA02008C
:1036E00000EBD3705EEA430E08BF20EAD37070BDD2
:1036F00094F0000F0FD101F00046400041EB0101B2
:1037000011F4801F08BF013CF7D041EA060195F093
:10371000000F18BF704703F00046520043EB03034D
:1037200013F4801F08BF013DF7D043EA060370473A
:1037300094EA0C0F0CEA135518BF95EA0C0F0CD045
:1037400050EA410618BF52EA4306D1D181EA03018B
:1037500001F000414FF0000070BD50EA410606BF85
:103760001046194652EA430619D094EA0C0F02D1CA
:1037700050EA013613D195EA0C0F05D152EA03360F
:103780001CBF104619460AD181EA030101F000412D
:1037900041F0FE4141F470014FF0000070BD41F076
:1037A000FE4141F4780170BD70B54FF0FF0C4CF450
:1037B000E06C1CEA11541DBF1CEA135594EA0C0F6F
:1037C00095EA0C0F00F0A7F8A4EB050481EA030EBC
:1037D00052EA03354FEA013100F088804FEA0333A3
:1037E0004FF0805545EA131343EA12634FEA022271
:1037F00045EA111545EA10654FEA00260EF0004132
:103800009D4208BF964244F1FD0404F5407402D283
:103810005B084FEA3202B61A65EB03055B084FEA14
:1038200032024FF480104FF4002CB6EB020E75EB11
:10383000030E22BFB61A754640EA0C005B084FEA39
:103840003202B6EB020E75EB030E22BFB61A7546B6
:1038500040EA5C005B084FEA3202B6EB020E75EB01
:10386000030E22BFB61A754640EA9C005B084FEA79
:103870003202B6EB020E75EB030E22BFB61A754686
:1038800040EADC0055EA060E18D04FEA051545EA75
:1038900016754FEA06164FEAC30343EA52734FEA1E
:1038A000C2025FEA1C1CC0D111F4801F0BD141EA97
:1038B00000014FF000004FF0004CB6E711F4801FFC
:1038C00004BF01430020B4F1FD0C88BFBCF5E06FDC
:1038D0003FF6AFAEB5EB030C04BFB6EB020C5FEAEC
:1038E000500C50F1000041EB045170BD0EF0004E41
:1038F0004EEA113114EB5C04C2BFD4EB0C0541EA73
:10390000045170BD41F480114FF0000E013C90E66F
:1039100045EA060E8DE60CEA135594EA0C0F08BF33
:1039200095EA0C0F3FF43BAF94EA0C0F0AD150EA32
:1039300001347FF434AF95EA0C0F7FF425AF1046C5
:1039400019462CE795EA0C0F06D152EA03353FF4ED
:10395000FDAE1046194622E750EA410618BF52EA6A
:1039600043067FF4C5AE50EA41047FF40DAF52EA3E
:1039700043057FF4EBAE12E74FF0FF3C06E000BFDB
:103980004FF0010C02E000BF4FF0010C4DF804CDE8
:103990004FEA410C7FEA6C5C4FEA430C18BF7FEAA8
:1039A0006C5C1BD001B050EA410C0CBF52EA430CD6
:1039B00091EA030F02BF90EA020F0020704710F156
:1039C000000F91EA030F58BF994208BF90422CBFE5
:1039D000D8176FEAE37040F0010070474FEA410CDE
:1039E0007FEA6C5C02D150EA013C07D14FEA430CFC
:1039F0007FEA6C5CD6D152EA033CD3D05DF8040B6D
:103A0000704700BF8446104662468C46194663469E
:103A100000E000BF01B5FFF7B7FF002848BF10F175
:103A2000000F01BD4DF808EDFFF7F4FF0CBF0120BA
:103A300000205DF808FB00BF4DF808EDFFF7EAFF36
:103A400034BF012000205DF808FB00BF4DF808EDF1
:103A5000FFF7E0FF94BF012000205DF808FB00BFE6
:103A60004DF808EDFFF7CEFF94BF012000205DF870
:103A700008FB00BF4DF808EDFFF7C4FF34BF01207D
:103A800000205DF808FB00BF4FEA410212F500126A
:103A900015D211D56FF47873B3EB625212D94FEA95
:103AA000C12343F0004343EA505311F0004F23FA7F
:103AB00002F018BF404270474FF00000704750EAD4
:103AC000013005D111F0004008BF6FF00040704791
:103AD0004FF00000704700BF80F0004002E000BFE0
:103AE00081F0004142001FBF5FEA410392EA030FE9
:103AF0007FEA226C7FEA236C6AD04FEA1262D2EB33
:103B00001363C1BFD218414048404140B8BF5B4237
:103B1000192B88BF704710F0004F40F4000020F0D0
:103B20007F4018BF404211F0004F41F4000121F0E6
:103B30007F4118BF494292EA030F3FD0A2F1010230
:103B400041FA03FC10EB0C00C3F1200301FA03F16E
:103B500000F0004302D5494260EB4000B0F5000F91
:103B600013D3B0F1807F06D340084FEA310102F150
:103B70000102FE2A51D2B1F1004F40EBC25008BF02
:103B800020F0010040EA03007047490040EB0000CC
:103B900010F4000FA2F10102EDD1B0FA80FCACF1FB
:103BA000080CB2EB0C0200FA0CF0AABF00EBC250FA
:103BB00052421843BCBFD0401843704792F0000FE8
:103BC00081F4000106BF80F400000132013BB5E73B
:103BD0004FEA41037FEA226C18BF7FEA236C21D0B1
:103BE00092EA030F04D092F0000F08BF0846704716
:103BF00090EA010F1CBF0020704712F07F4F04D1E4
:103C0000400028BF40F00040704712F100723CBFF6
:103C100000F50000704700F0004343F0FE4040F420
:103C2000000070477FEA226216BF08467FEA2363DE
:103C30000146420206BF5FEA412390EA010F40F4C9
:103C4000800070474FF0000304E000BF10F0004315
:103C500048BF40425FEA000C08BF704743F09643FC
:103C600001464FF000001CE050EA010208BF704717
:103C70004FF000030AE000BF50EA010208BF70479E
:103C800011F0004302D5404261EB41015FEA010CB3
:103C900002BF84460146002043F0B64308BFA3F1AB
:103CA0008053A3F50003BCFA8CF2083AA3EBC2538D
:103CB00010DB01FA02FC634400FA02FCC2F12002AC
:103CC000BCF1004F20FA02F243EB020008BF20F0E3
:103CD0000100704702F1200201FA02FCC2F1200249
:103CE00050EA4C0021FA02F243EB020008BF20EA3E
:103CF000DC7070474FF0FF0C1CEAD0521EBF1CEA6C
:103D0000D15392EA0C0F93EA0C0F6FD01A4480EA59
:103D1000010C400218BF5FEA41211ED04FF0006342
:103D200043EA501043EA5111A0FB01310CF000406E
:103D3000B1F5000F3EBF490041EAD3715B0040EA94
:103D4000010062F17F02FD2A1DD8B3F1004F40EB64
:103D5000C25008BF20F00100704790F0000F0CF037
:103D6000004C08BF49024CEA502040EA51207F3AFB
:103D7000C2BFD2F1FF0340EAC250704740F40000D6
:103D80004FF00003013A5DDC12F1190FDCBF00F0C7
:103D900000407047C2F10002410021FA02F1C2F175
:103DA000200200FA02FC5FEA310040F1000053EA11
:103DB0004C0308BF20EADC70704792F0000F00F05F
:103DC000004C02BF400010F4000F013AF9D040EA65
:103DD0000C0093F0000F01F0004C02BF490011F4F9
:103DE000000F013BF9D041EA0C018FE70CEAD153F7
:103DF00092EA0C0F18BF93EA0C0F0AD030F0004C77
:103E000018BF31F0004CD8D180EA010000F000402A
:103E1000704790F0000F17BF90F0004F084691F0E8
:103E2000000F91F0004F14D092EA0C0F01D1420222
:103E30000FD193EA0C0F03D14B0218BF084608D1EB
:103E400080EA010000F0004040F0FE4040F4000035
:103E5000704740F0FE4040F4400070474FF0FF0CC8
:103E60001CEAD0521EBF1CEAD15392EA0C0F93EA0F
:103E70000C0F69D0A2EB030280EA010C49024FEA61
:103E8000402037D04FF0805343EA111143EA10131A
:103E90000CF000408B4238BF5B0042F17D024FF4D2
:103EA000000C8B4224BF5B1A40EA0C00B3EB510FAD
:103EB00024BFA3EB510340EA5C00B3EB910F24BF96
:103EC000A3EB910340EA9C00B3EBD10F24BFA3EB1B
:103ED000D10340EADC001B0118BF5FEA1C1CE0D1E3
:103EE000FD2A3FF650AF8B4240EBC25008BF20F096
:103EF000010070470CF0004C4CEA50207F32C2BFEA
:103F0000D2F1FF0340EAC250704740F400004FF086
:103F10000003013A37E792F0000F00F0004C02BFB7
:103F2000400010F4000F013AF9D040EA0C0093F081
:103F3000000F01F0004C02BF490011F4000F013BDB
:103F4000F9D041EA0C0195E70CEAD15392EA0C0F43
:103F500008D142027FF47DAF93EA0C0F7FF470AF7B
:103F6000084676E793EA0C0F04D14B023FF44CAFBE
:103F700008466EE730F0004C18BF31F0004CCAD153
:103F800030F000427FF45CAF31F000437FF43CAF8F
:103F90005FE700BF13460A460146022000F028B83A
:103FA00070B50F4E0F4D761BB61018BF002405D00C
:103FB000013455F8043B9847A642F9D10A4E0B4DFF
:103FC000761B00F02FFAB61018BF002406D001347B
:103FD00055F8043B9847A642F9D170BD70BD00BFAB
:103FE00030440000304400004044000030440000F1
:103FF0002DE9F047254C2568D5F848410646884606
:1040000092469946C4B360681F2817DC431C76B1FA
:1040100004EB80050122C5F888A0D4F888118240FD
:104020001143022EC4F88811C5F808911ED0023041
:10403000636044F820800020BDE8F087144B03B390
:104040004FF4C870AFF300800446D0B1D5F84831C2
:10405000002780E88800C5F8484138460123C4F8A5
:104060008871C4F88C71002EE1D0D1E7D4F88C119E
:104070000A43C4F88C21DAE705F5A674C5F848416F
:10408000C1E74FF0FF30BDE8F08700BF20440000DB
:1040900000000000024B13B1024800F005B8704761
:1040A00000000000B5400000002301461A461846F3
:1040B000FFF79EBF38B5074D074C2C1BA41005D049
:1040C000013C55F8043D9847002CF9D1BDE8384033
:1040D00000F0B6B900000000000000004008FE43F8
:1040E00040A004404408FE4344A004400018FE439E
:1040F00000C004403000FE43309004403400FE43D2
:10410000349004401C18FE431CC004401018FE43A9
:1041100010C004400818FE4308C004400C18FE43B9
:104120000CC004400C10FE430CB004401010FE43C1
:1041300010B004401810FE4318B004401C10FE4399
:104140001CB004401410FE4314B004400418FE4395
:1041500004C004400010FE4300B004400008FE43C9
:1041600000A004400408FE4304A004400C08FE43E1
:104170000CA004400808FE4308A004401418FE43A5
:1041800014C004401818FE4318C004400410FE4335
:1041900004B004400810FE4308B004401400FE437D
:1041A000149004404C08FE434CA004400420FE43FD
:1041B00004D004402410FE4324B004402010FE43E9
:1041C00020B004402810FE4328B004402C10FE43C9
:1041D0002CB004400020FE4300D004404808FE43B9
:1041E00048A004401000FE4310900440001519152B
:1041F000000100005087FF1F1200000000020000B5
:104200007C87FF1F4300000000030000D887FF1FCA
:1042100000000000010309046487FF1F0000000084
:1042200002030904C087FF1F000000000303090404
:10423000DC87FF1F000000000000000000000000FD
:1042400000000000FB21F93FFB2109407CD912400E
:10425000FB2119407A6A1F407CD92240BBFD2540D2
:10426000FB2129403A462C407A6A2F405C47314076
:104270007CD932409C6B3440BBFD3540DB8F3740EE
:10428000FB2139401BB43A403A463C405AD83D40A5
:104290007A6A3F404C7E40405C4741406C1042404F
:1042A0007CD942408CA243409C6B4440AC34454096
:1042B000BBFD4540CBC64640DB8F4740EB584840EE
:1042C000FB21494083F9A200444E6E00FC291500F1
:1042D000D1572700DD34F50062DBC0003C99950022
:1042E000419043006351FE00BBDEAB00B761C500E7
:1042F0003A6E2400D24D42004906E00009EA2E0041
:104300001C92D100EB1DFE0029B11C00E83EA70065
:10431000F535820044BB2E009CE98400B426700071
:10432000417E5F00D6913900538339009CF43900F7
:104330008B5F840028F9BD00F81F3B00DEFF97006B
:104340000F980500112FEF000A5A8B006D1F6D00AA
:10435000CF7E360009CB2700464FB7009E663F0050
:104360002DEA5F00BA277500E5EBC7003D7BF10041
:10437000F739070092528A00FB6BEA001FB15F0019
:10438000085D8D00300356007BFC4600F0AB6B00EF
:1043900020BCCF0036F49A00E3A91D005E619100B5
:1043A000081BE60085996500A0145F008D40680039
:1043B00080D8FF0027734D0006063100CA5615004D
:1043C000C9A873007BE260006B8CC0000200000093
:1043D000030000000400000006000000FFFFFFFFD4
:1043E00000000040FB21F93F000000002D44743E16
:1043F000000000809846F83C0000006051CC783BFB
:1044000000000080831BF0390000004020257A382E
:10441000000000802282E336000000001DF36935B1
:10442000F887FF1FF8B500BFF8BC08BC9E46704770
:104430009540000035040000A50700008D0800002D
:04444000F8B500BF0C
:08444400F8DAFF7F010000001F
:10444C000000000028000000010000002C0100000A
:10445C0008000000FFFFFFFF01000000B51C00007A
:10446C00B51C0000B51C0000B51C00000A040100BE
:10447C001201100102000040C016830475020102F3
:10448C000301000018035400650065006E00730002
:10449C0079006400750069006E006F00090243002A
:1044AC00020100C0320904000001020201000524CF
:1044BC000010010524010101042402060524060054
:1044CC00010705820310004009040100020A0000E4
:1044DC0000070503024000000705840240000000AD
:1044EC001603550053004200200053006500720073
:1044FC00690061006C000000040309040C03000057
:10450C00000000000000000000000000000000009F
:10451C00000000000000000000000000E48AFF1F03
:10452C004C8BFF1FB48BFF1F00000000000000002D
:10453C00000000000000000000000000000000006F
:10454C00000000000000000000000000000000005F
:10455C00000000000000000000000000000000004F
:10456C00000000000000000000000000000000003F
:10457C00000000000000000000000000000000002F
:10458C00000000000000000000000000000000001F
:10459C00000000000000000000000000000000000F
:1045AC0000000000000000000000000000000000FF
:1045BC0000000000000000000000000000000000EF
:1045CC0001000000000000000E33CDAB34126DE68C
:1045DC00ECDE05000B0000000000000000000000F5
:1045EC0000000000000000000000000000000000BF
:1045FC0000000000000000000000000000000000AF
:10460C00000000000000000000000000000000009E
:10461C00000000000000000000000000000000008E
:00000001FF
